:020000040800F2
:100000005049002005020008810300087903000818
:100010007D03000813030008E1040008000000004D
:100020000000000000000000000000004501000882
:100030001703000800000000A10100088503000864
:100040001F0200081F0200081F0200081F0200080C
:100050001F0200081F0200081F0200081F020008FC
:100060001F0200081F0200081F0200081F020008EC
:100070001F0200081F0200081F0200081F020008DC
:100080001F0200081F0200081F0200081F020008CC
:100090001F0200081F0200081F0200081F020008BC
:1000A0001F0200081F0200081F0200081F020008AC
:1000B0001F0200081F0200081F0200081F0200089C
:1000C0001F0200081F0200081F0200081F0200088C
:1000D0001F0200081F0200081F0200081F0200087C
:1000E0001F0200081F0200081F0200081F0200086C
:1000F0001F0200081F0200081F0200081F0200085C
:100100001F0200081F0200081F0200081F0200084B
:100110001F0200081F0200081F0200081F0200083B
:100120001F0200081F0200081F0200081F0200082B
:10013000DFF80CD000F0BCF8004800478D1700082D
:10014000504900202C4B19680868B0E8F04F80F344
:100150000988BFF36F8F4FF0000080F3118870475C
:100160000000000008480068006880F308884FF02D
:10017000000080F3148862B661B6BFF34F8FBFF3FF
:100180006F8F00DF00BF00BF08ED00E0DFF80C005C
:10019000016841F470010160704700BF88ED00E024
:1001A000EFF30980BFF36F8F134B1A681EF0100F27
:1001B00008BF20ED108A20E9F04F106009B44FF01D
:1001C000500080F31188BFF34F8FBFF36F8F02F0A1
:1001D000A9FC4FF0000080F3118809BC1968086879
:1001E000B0E8F04F1EF0100F08BFB0EC108A80F39B
:1001F0000988BFF36F8F704744000020EFF305803C
:10020000704700000648804706480047FEE7FEE7C3
:10021000FEE7FEE7FEE7FEE7FEE7FEE7FEE7FEE7B6
:100220007104000831010008D2B201E000F8012B8E
:10023000491EFBD270470022F6E710B513460A4666
:1002400004461946FFF7F0FF204610BD2DE9F05F88
:100250000546002092469B46884606468146402435
:100260001BE0284641464746224600F042F85346E6
:100270005A46C01A914110D311461846224600F042
:1002800029F82D1A67EB01084F462246012000216C
:1002900000F020F817EB00094E41201EA4F10104E4
:1002A000DFDC484631462A464346BDE8F09F000061
:1002B000064C074D06E0E06840F0010394E80700B3
:1002C00098471034AC42F6D3FFF736FFB853000816
:1002D000D8530008202A04DB203A00FA02F100205B
:1002E00070479140C2F1200320FA03F31943904074
:1002F0007047202A04DB203A21FA02F000217047DF
:1003000021FA02F3D040C2F120029140084319467D
:10031000704700BFFEE7704730B502460020144624
:1003200001F00F05C5F11003084601E02354401CFD
:10033000CD188542FAD830BD2DE9F041C6B005464A
:100340000E461746984600244FF48C716846FFF716
:1003500072FF80222946684600F046FF06E03B19FE
:1003600032190121684600F03DFA10344445F6D3B5
:10037000002046B0BDE8F08100BFFEE700BFFEE709
:100380007047000010B500BF502080F31188BFF304
:100390004F8FBFF36F8F00BF02F084FD18B14FF095
:1003A00080500449086000BF002080F3118800BF1E
:1003B00010BD000004ED00E0F0B5284E7668C6F3ED
:1003C000810525B1012D06D0022D40D107E0244E34
:1003D000244F3E603FE0224E224F3E603BE01F4EE6
:1003E000766806F48032B2F5803F10D11B4EF66A73
:1003F00006F080430BB91A4900E01B49174E766896
:1004000006F40034B4F5003F02D1184900E0174962
:10041000124E7668C6F38340104E766806F000668A
:100420000EB140F010000D4E766806F080460EB119
:1004300040F020000F2801D3401C00E0801C3D2824
:1004400000D93F2001FB00F6064F3E6003E0044E5A
:10045000044F3E6000BF00BFF0BD0000001002402E
:1004600000127A0008000020006CDC0200093D0048
:1004700008B51848006840F470001649086016482E
:10048000006840F00100144908600846406840F0E8
:10049000800048600020009002E00098401C00901E
:1004A00044F6206100988842F7D300200A4948604A
:1004B000C8620846006809490840074908604FF4C7
:1004C0001F0088600846006820F48020086001F062
:1004D0006DFE08BD88ED00E000100240FFFFF6FE53
:1004E00000BFFEE70FB4054B10B503A9044A0298FC
:1004F00000F018F810BC5DF814FB0000B5140008FB
:100500008000002002E008C8121F08C1002AFAD1AA
:1005100070477047002001E001C1121F002AFBD183
:10052000704700002DE9FF4F8DB09B460F460446F3
:10053000002606E025280BD05A460F999047641CE8
:10054000761C20780028F5D111B03046BDE8F08F38
:100550000025A8460122984900E0054314F8013F10
:10056000203B02FA03F00842F7D120782E2817D159
:1005700014F8010F45F004052A280ED06FF02F0261
:100580002078A0F1300109290AD808EB880102EB94
:10059000410100EB0108641CF2E757F8048B641C6E
:1005A00020786C280DD004DC4C2812D06A2811D198
:1005B00004E074280DD07A280CD10AE045F4001527
:1005C00007E0617845F48015814202D1641C05F58D
:1005D0008015641C2278692A45D008DC002AB3D033
:1005E000582A69D0632A10D0642A08D13BE0702AC7
:1005F00067D0732A13D0752A5CD0782A5CD0104655
:100600005A460F999047761CD3E017F8040B8DF8E3
:10061000000000208DF80100E946012003E057F8B2
:10062000049B4FF0FF3069074FF0000501D40AE04A
:100630006D1C45450DDA8542FADB19F805100029D5
:10064000F6D106E06D1C8542FCDB19F80510002987
:10065000F8D12E4404E019F8010B5A460F9990473F
:100660006D1EF8D2A5E00A200021CDE90801C5F3EE
:10067000025002280DD001CFC117031E71F10003F3
:100680000DDA4FF0000CD0EB0C006CEB01012D23C8
:1006900008E0FF1D27F00707F7E80201EDE72B054B
:1006A00004D52B238DF8283001233BE0EB0739D00C
:1006B0002023F7E70A2000E010200021CDE90801FF
:1006C00007E01020002145F00405CDE908014FF0B6
:1006D0000808C5F3025002280FD001CF00214FF0C7
:1006E000000A2B071FD5702A0DD0DDE908C38CF056
:1006F000100C5CEA030C0CD015E0FF1D27F0070777
:10070000F7E80201EBE740228DF828204FF0010ABC
:100710000BE050EA010306D030238DF828308DF825
:10072000292002239A46582A04D024A20DF1200938
:100730000B9209E026A2F9E7DDE90823FFF786FD21
:100740000B9B9B5C09F8013D50EA0102F4D1ADEB33
:10075000090020300890680701D44FF0010808997B
:10076000884502DDA8EB010000E00020804600255E
:1007700006E00AA85A46405D0F9990476D1C761C0A
:100780005545F6DB04E030205A460F999047761C19
:10079000B8F10001A8F10108F5DC05E019F8010B3A
:1007A0005A460F999047761C0899481E08900029D0
:1007B000F4DC641CC5E60000092801003031323346
:1007C000343536373839616263646566000000008D
:1007D0003031323334353637383941424344454677
:1007E000000000002DE9FF4F81B090469946DDF8EA
:1007F00004A0DAF8040098F800A098F801B04AEADA
:100800000B2A98F802B04AEA0B4A98F803B04AEA71
:100810000B6150F804AB8AEA010198F804A098F83B
:1008200005B04AEA0B2A98F806B04AEA0B4A98F84B
:1008300007B04AEA0B6250F804AB8AEA020298F861
:1008400008A098F809B04AEA0B2A98F80AB04AEAD0
:100850000B4A98F80BB04AEA0B6350F804AB8AEAEB
:10086000030398F80CA098F80DB04AEA0B2A98F800
:100870000EB04AEA0B4A98F80FB04AEA0B6450F8F7
:1008800004AB8AEA0404DDF808A0BAF1000F7DD1B8
:10089000DDF804A0DAF800A04FF0010BCBEB6A0AF8
:1008A000CDF800A017E150F804AB01F0FF0BDFF822
:1008B00010E95EF82BB08AEA0B0AC4F3072BDFF8C5
:1008C00004E95EF82BB08AEA0B0AC3F3074BDFF8A2
:1008D000F8E85EF82BB08AEA0B0A4FEA126BDFF8F1
:1008E000ECE85EF82BB08AEA0B0650F804AB02F095
:1008F000FF0BDFF8CCE85EF82BB08AEA0B0AC1F3F5
:10090000072BDFF8C0E85EF82BB08AEA0B0AC4F3C5
:10091000074BDFF8B4E85EF82BB08AEA0B0A4FEA1F
:10092000136BDFF8A8E85EF82BB08AEA0B0750F8E3
:1009300004AB03F0FF0BDFF888E85EF82BB08AEA1F
:100940000B0AC2F3072BDFF87CE85EF82BB08AEACB
:100950000B0AC1F3074BDFF870E85EF82BB08AEAA8
:100960000B0A4FEA146BDFF864E85EF82BB08AEAF2
:100970000B0550F804AB04F0FF0BDFF844E85EF819
:100980002BB08AEA0B0AC3F3072B00E0B0E1DFF8D3
:1009900034E85EF82BB08AEA0B0AC2F3074BDFF8A3
:1009A00028E85EF82BB08AEA0B0A4FEA116BDFF8F1
:1009B0001CE85EF82BB08AEA0B0C50F804AB06F08A
:1009C000FF0BDFF8FCE75EF82BB08AEA0B0ACCF3EA
:1009D000072BDFF8F0E75EF82BB08AEA0B0AC5F3C5
:1009E000074BDFF8E4E75EF82BB08AEA0B0A4FEA20
:1009F000176BDFF8D8E75EF82BB08AEA0B0150F8E6
:100A000004AB07F0FF0BDFF8B8E75EF82BB08AEA1B
:100A10000B0AC6F3072BDFF8ACE75EF82BB08AEAC7
:100A20000B0ACCF3074BDFF8A0E75EF82BB08AEA9D
:100A30000B0A4FEA156BDFF894E75EF82BB08AEAF1
:100A40000B0250F804AB05F0FF0BDFF874E75EF81B
:100A50002BB08AEA0B0AC7F3072BDFF868E75EF8CA
:100A60002BB08AEA0B0AC6F3074BDFF85CE75EF8A7
:100A70002BB08AEA0B0A4FEA1C6BDFF850E75EF8EE
:100A80002BB08AEA0B0350F804AB0CF0FF0BDFF835
:100A900030E75EF82BB08AEA0B0AC5F3072BDFF8C4
:100AA00024E75EF82BB08AEA0B0AC7F3074BDFF89E
:100AB00018E75EF82BB08AEA0B0A4FEA166BDFF8EC
:100AC0000CE75EF82BB08AEA0B04DDF800A0AAF16F
:100AD000010ACDF800A0DDF800A0BAF1000F3FF741
:100AE000E2AE50F804AB01F0FF0BDFF8D4E65EF89D
:100AF0002BB08AEA0B0AC4F3072BDFF8C8E65EF8CE
:100B00002BB08AEA0B0AC3F3074BDFF8BCE65EF8AA
:100B10002BB08AEA0B0A4FEA126BDFF8B0E65EF8F8
:100B20002BB08AEA0B0650F804AB02F0FF0BDFF89B
:100B300090E65EF82BB08AEA0B0AC1F3072BDFF8C8
:100B400084E65EF82BB08AEA0B0AC4F3074BDFF8A1
:100B500078E65EF82BB08AEA0B0A4FEA136BDFF8EF
:100B60006CE65EF82BB08AEA0B0750F804AB03F092
:100B7000FF0BDFF84CE65EF82BB08AEA0B0AC2F3F3
:100B8000072BDFF840E65EF82BB08AEA0B0AC1F3C8
:100B9000074BDFF834E65EF82BB08AEA0B0A4FEA1F
:100BA000146BDFF828E65EF82BB08AEA0B0550F8E4
:100BB00004AB04F0FF0BDFF808E65EF82BB08AEA1E
:100BC0000B0AC3F3072BDFF8FCE55EF82BB08AEACB
:100BD0000B0AC2F3074BDFF8F0E55EF82BB08AEAA8
:100BE0000B0A4FEA116BDFF8E4E55EF82BB08AEAF6
:100BF0000B0C50F804AB06F0FF0BDFF8D4E51EF841
:100C00000BB08AEA0B0AF346CCF3072E1BF80EB0A2
:100C10008AEA0B2ADFF8B8B5C5F3074E1BF80EB009
:100C20008AEA0B4B4FEA176ADFF8A4E51EF80AA020
:100C30008BEA0A6150F804AB07F0FF0B1EF80BB00B
:100C40008AEA0B0AF346C6F3072E1BF80EB08AEAAF
:100C50000B2ADFF87CB5CCF3074E1BF80EB08AEAFE
:100C60000B4B4FEA156ADFF868E51EF80AA08BEA1D
:100C70000A6250F804AB05F0FF0B1EF80BB08AEACD
:100C80000B0AF346C7F3072E1BF80EB08AEA0B2AAD
:100C9000DFF83CB5C6F3074E1BF80EB08AEA0B4BE3
:100CA0004FEA1C6ADFF828E51EF80AA08BEA0A63FF
:100CB00050F804AB0CF0FF0B1EF80BB08AEA0B0ADD
:100CC000F346C5F3072E1BF80EB08AEA0B2ADFF8AD
:100CD00000B5C7F3074E1BF80EB08AEA0B4B4FEA7C
:100CE000166ADFF8ECE41EF80AA08BEA0A642CE22C
:100CF000DDF804A0DAF800A04FF0010BCBEB6A0A94
:100D0000CDF800A015E150F804AB01F0FF0BDFF8BF
:100D1000C4E45EF82BB08AEA0B0AC2F3072BDFF8B3
:100D2000B8E45EF82BB08AEA0B0AC3F3074BDFF88E
:100D3000ACE45EF82BB08AEA0B0A4FEA146BDFF8DA
:100D4000A0E45EF82BB08AEA0B0650F804AB02F080
:100D5000FF0BDFF880E45EF82BB08AEA0B0AC3F3DE
:100D6000072BDFF874E45EF82BB08AEA0B0AC4F3B1
:100D7000074BDFF868E45EF82BB08AEA0B0A4FEA0B
:100D8000116BDFF85CE45EF82BB08AEA0B0750F8D1
:100D900004AB03F0FF0BDFF83CE45EF82BB08AEA0B
:100DA0000B0AC4F3072BDFF830E45EF82BB08AEAB5
:100DB0000B0AC1F3074BDFF824E45EF82BB08AEA94
:100DC0000B0A4FEA126BDFF818E45EF82BB08AEAE0
:100DD0000B0550F804AB04F0FF0BDFF8F8E35EF806
:100DE0002BB08AEA0B0AC1F3072BDFF8ECE35EF8BD
:100DF0002BB08AEA0B0AC2F3074BDFF8E0E35EF898
:100E00002BB08AEA0B0A4FEA136BDFF8D4E35EF8E3
:100E10002BB08AEA0B0C50F804AB06F0FF0BDFF89E
:100E2000B4E35EF82BB08AEA0B0AC7F3072BDFF8AE
:100E3000A8E35EF82BB08AEA0B0AC5F3074BDFF88C
:100E40009CE35EF82BB08AEA0B0A4FEA1C6BDFF8D2
:100E500090E35EF82BB08AEA0B0150F804AB07F080
:100E6000FF0BDFF870E35EF82BB08AEA0B0AC5F3DC
:100E7000072BDFF864E35EF82BB08AEA0B0ACCF3A9
:100E8000074BDFF858E35EF82BB08AEA0B0A4FEA0B
:100E9000166BDFF84CE35EF82BB08AEA0B0250F8D1
:100EA00004AB05F0FF0BDFF82CE35EF82BB08AEA09
:100EB0000B0ACCF3072BDFF820E35EF82BB08AEAAD
:100EC0000B0AC6F3074BDFF814E35EF82BB08AEA8F
:100ED0000B0A4FEA176BDFF808E35EF82BB08AEADB
:100EE0000B0350F804AB0CF0FF0BDFF8E8E25EF800
:100EF0002BB08AEA0B0AC6F3072BDFF8DCE25EF8B8
:100F00002BB08AEA0B0AC7F3074BDFF8D0E25EF892
:100F10002BB08AEA0B0A4FEA156BDFF8C4E25EF8E1
:100F20002BB08AEA0B04DDF800A0AAF1010ACDF883
:100F300000A0DDF800A0BAF1000F3FF7E4AE50F8D2
:100F400004AB01F0FF0BDFF88CE25EF82BB08AEA0D
:100F50000B0AC2F3072BDFF880E25EF82BB08AEAB7
:100F60000B0AC3F3074BDFF874E25EF82BB08AEA92
:100F70000B0A4FEA146BDFF868E25EF82BB08AEADE
:100F80000B0650F804AB02F0FF0BDFF848E25EF806
:100F90002BB08AEA0B0AC3F3072BDFF83CE25EF8BA
:100FA0002BB08AEA0B0AC4F3074BDFF830E25EF895
:100FB0002BB08AEA0B0A4FEA116BDFF824E25EF8E5
:100FC0002BB08AEA0B0750F804AB03F0FF0BDFF8F5
:100FD00004E25EF82BB08AEA0B0AC4F3072BDFF8B1
:100FE000F8E15EF82BB08AEA0B0AC1F3074BDFF891
:100FF000ECE15EF82BB08AEA0B0A4FEA126BDFF8DD
:10100000E0E15EF82BB08AEA0B0550F804AB04F07F
:10101000FF0BDFF8C0E15EF82BB08AEA0B0AC1F3E0
:10102000072BDFF8B4E15EF82BB08AEA0B0AC2F3B3
:10103000074BDFF8A8E15EF82BB08AEA0B0A4FEA0B
:10104000136BDFF89CE15EF82BB08AEA0B0C50F8CA
:1010500004AB06F0FF0BDFF88CE11EF80BB08AEA58
:101060000B0AF346C7F3072E1BF80EB08AEA0B2AC9
:10107000DFF870B1C5F3074E1BF80EB08AEA0B4BD0
:101080004FEA1C6ADFF85CE11EF80AA08BEA0A61ED
:1010900050F804AB07F0FF0B1EF80BB08AEA0B0AFE
:1010A000F346C5F3072E1BF80EB08AEA0B2ADFF8C9
:1010B00034B1CCF3074E1BF80EB08AEA0B4B4FEA63
:1010C000166ADFF820E11EF80AA08BEA0A6250F8DF
:1010D00004AB05F0FF0B1EF80BB08AEA0B0AF346CF
:1010E000CCF3072E1BF80EB08AEA0B2ADFF8F4B017
:1010F000C6F3074E1BF80EB08AEA0B4B4FEA176A8D
:10110000DFF8E0E01EF80AA08BEA0A6350F804ABAF
:101110000CF0FF0B1EF80BB08AEA0B0AF346C6F37D
:10112000072E1BF80EB08AEA0B2ADFF8B8B0C7F317
:10113000074E1BF80EB08AEA0B4B4FEA156ADFF830
:10114000A4E01EF80AA08BEA0A6489F800104FEAAE
:10115000112A89F801A04FEA114A89F802A04FEA42
:10116000116A89F803A089F804204FEA122A89F845
:1011700005A04FEA124A89F806A04FEA126A89F8D8
:1011800007A089F808304FEA132A89F809A04FEA26
:10119000134A89F80AA04FEA136A89F80BA089F864
:1011A0000C404FEA142A89F80DA04FEA144A89F836
:1011B0000EA04FEA146A89F80FA005B0BDE8F08FC1
:1011C0009043000890470008904B0008904F00089B
:1011D000904200089032000890360008903A0008CB
:1011E000903E000890310008F0B503460C46802A76
:1011F00005D0C02A06D0B2F5807F09D105E00A25C6
:101200001D6006E00C251D6003E00E251D6000E05A
:10121000F0BD00BF03F108005860002116E014F88B
:101220002150012606EB8106A65D45EA0625022629
:1012300006EB8106A65D45EA0645032606EB810618
:10124000A65D45EA066540F82150491CB1EB621FD6
:10125000E5DB1D680A2D04D00C2D30D00E2D7DD17C
:1012600063E0002128E05C4E56F821600568754077
:101270008689C6F30726594FBE5D7540C668C6F31A
:101280000746BE5D85EA0626C5682D0E7D5D86EAA9
:101290000545067BBE5D85EA06650561066945680C
:1012A0007540456146698568754085618669C56890
:1012B0007540C561491C10300A29D4DB89E0002142
:1012C00030E0454E56F8216005687540868AC6F3C1
:1012D0000726424FBE5D75404669C6F30746BE5DB0
:1012E00085EA062645692D0E7D5D86EA0545067D63
:1012F000BE5D85EA06658561866945687540C5619C
:10130000C669856875400562066AC56875404562AC
:10131000466A056975408562866A45697540C56299
:10132000491C18300829CCDB53E000214DE02A4E3F
:1013300056F8216005687540868BC6F30726274F4F
:10134000BE5D7540C669C6F30746BE5D85EA0626E2
:10135000C5692D0E7D5D86EA054500E038E0067F13
:10136000BE5D85EA06650562066A456875404562A8
:10137000466A856875408562866AC5687540C5623B
:1013800090F82C60BE5D05697540868DC6F3072612
:10139000BE5D85EA0625C66AC6F30746BE5D85EAD8
:1013A0000646C56A2D0E7D5D86EA05650563066BFA
:1013B000456975404563466B856975408563866BF5
:1013C000C5697540C563491C20300729AFDB00E0C3
:1013D00000BF00BF00BF1BE790530008903100081A
:1013E0001CB50C48012100234022CDE900100AA1C0
:1013F0000B4801F091FC0B48012100234022CDE96C
:10140000001009A10A4801F087FC002001F0A4FAAD
:1014100000BFFEE7000000204C45445461736B00A0
:10142000CD220008040000204B45595461736B0025
:10143000C521000870B503464FF0E0267469C3EB80
:101440000316F5004FF0E026B169002210E04FF0DE
:10145000E026B069884208D0884203D9261A0E4493
:10146000324401E00E1A32440146AA4200D300E0A1
:10147000EDE700BF70BD000001210120094A12689C
:101480000AB100200CE0084A12680AB1002007E007
:10149000064A1368064A1268521E934200D102207F
:1014A00070470000104500206800002038450020EB
:1014B0005400002070B504460D46E1B2054800F026
:1014C000EFFF00BF0721034801F03BF80028F9D0E7
:1014D000204670BD00380140416170470AB101618A
:1014E00000E041617047000010B54FF4C06000F0AB
:1014F000A3FD40F2026000F09FFD40F2036000F0A7
:101500009BFD0121094800F0E7F80123032228216F
:10151000074800F073F8042303221021054800F067
:101520006DF804210348FFF7D7FF10BD000230001B
:1015300000080140000C014010B504462D49601A16
:101540008C422FD009DC2C48204480B1B0F5806F4C
:1015500016D0B0F5006F49D11BE0B0F5806F2AD0EE
:10156000B0F5006F30D0B0F5406F3FD135E040F2BC
:10157000023000F081FD40F2023000F06DFD36E0F7
:1015800040F2033000F078FD40F2033000F064FDDB
:101590002DE04FF4417000F06FFD4FF4417000F00A
:1015A0005BFD24E040F2053000F066FD40F20530BE
:1015B00000F052FD1BE040F2063000F05DFD40F20D
:1015C000063000F049FD12E040F2073000F054FD13
:1015D00040F2073000F040FD09E04FF4427000F0A7
:1015E0004BFD4FF4427000F037FD00E000BF00BF3C
:1015F00010BD00000014014000F8FEBFF0B5044625
:1016000016460025002201F00F0501F0100747B132
:10161000042E05D145F00305E76B1F43E76300E0A7
:10162000354300201EE0012787401F40C7B12268D4
:101630004FEA800C0F2707FA0CF7BA43870005FA28
:1016400007F73A43282904D1012787401F406761E3
:1016500005E0482903D1012787401F402761226008
:10166000471CB8B20828DED3082022E001278740B3
:101670001F40E7B16268A0F108074FEA870C0F2707
:1016800007FA0CF7BA43A0F10807BF0005FA07F7FD
:101690003A43282904D1012787401F40676105E0AC
:1016A000482903D1012787401F4027616260471CFA
:1016B000B8B21028DAD3F0BD02469068084008B1ED
:1016C000012070470020FCE70246D068084008B1BE
:1016D000012070470020FCE7F0B50A4600230024F3
:1016E0000021002500F00046B6F1004F02D11D4E4A
:1016F000F16901E01B4E7168C0F3034583B200F449
:101700004016B6F5401F08D121F0E061154E76680D
:1017100026F0E066134F7E6012E000F48016B6F506
:10172000801F06D1032606FA05F4A14341F0E061CB
:1017300006E0460D360103FA06F6B14341F0E061DA
:1017400022B1460D360103FA06F6314300F0004699
:10175000B6F1004F02D1034EF16101E0014E71601C
:10176000F0BD00000000014070B504462068064945
:101770000840B0F1005F06D165682E46206880F30E
:10178000088800BFB04770BD0000FE2F96B00F2044
:101790008DF8300010208DF831000F208DF83200C8
:1017A00010208DF833000025FEF706FEFFF79CFEA3
:1017B00000F0FEFD19A0FEF795FE04210CA8FEF72F
:1017C000ABFD85B22B4602AA0CA918A0FEF7B4FD0A
:1017D000002407E002A8025D214619A0FEF782FE60
:1017E000601CC4B2AC42F5DB002407E00CA8025D2B
:1017F000214613A0FEF776FE601CC4B2AC42F5DBB6
:101800000020012103464022CDE9001011A1144817
:1018100001F082FA01F01AF900BFFEE74672656531
:1018200052544F532064656D6F0D0A0032384432B4
:101830003133313445423830413143330000000008
:10184000656E646174615B25645D3D307825780D5B
:101850000A0000006170705F6D61696E0000000039
:10186000E11300082DE9F04105460E461F480768C0
:1018700000201F49096881F855001D480068001DB7
:1018800000F07EFE50B91A48006890F82C10012034
:10189000884018490968814316480160681C38B9B6
:1018A00036B113480168091D134800F0A7FE1AE07D
:1018B0007C190F4800684460BC4207D20C4801689C
:1018C000091D0E48006800F07FFE0CE00848016822
:1018D000091D0B48006800F077FE0A480068844242
:1018E00001D208480460BDE8F081000058000020E3
:1018F000440000205C000020384500204C000020FF
:10190000480000207400002010B5044600F082FE5C
:1019100024480068401C234908602348006840B9F7
:10192000214804600846006801280DD100F07AF9CA
:101930000AE01E48006838B91B480068C06AE16ABE
:10194000884201D81848046019480068401C1849AA
:10195000086008460068206494F82C100120884034
:1019600014490968084313490860E16A01EB8101E1
:10197000114A02EB8100211D00F040FE00F074FED0
:101980000A48006868B108480068C06AE16A88428D
:1019900007D24FF0805009490860BFF34F8FBFF363
:1019A0006F8F10BD54000020440000206000002014
:1019B000700000205C0000208444002004ED00E062
:1019C00010B516E000F026FE0C48C068C468201D63
:1019D00000F0D6FD0A480068401E09490860094821
:1019E0000068401E0749086000F03EFE204600F0F7
:1019F0000BF8044800680028E4D110BD24450020FD
:101A0000540000205000002010B50446206B00F068
:101A100049FE204600F046FE10BD000000210122D4
:101A20000C4B1B68012B00D901210B4A1268D26AAA
:101A30000AB100200DE0094A1268012A01D90020EC
:101A400007E009B1002004E0054A1268054B1B6855
:101A5000D01A70475C00002044000020844400201D
:101A6000740000205800002030B54FF48843174818
:101A700000F007042CB1C01D20F00700134C041B1C
:101A80001B1B0246124C22600024114D6C60D018C2
:101A9000083820F007000F4C206000240D4D2D6801
:101AA0006C600C4D2D682C601146441A4C60094C3A
:101AB00024680C60084D4C682C60084D4C682C6004
:101AC0004FF00044064D2C6030BD00008400002023
:101AD0000C000020140000201C0000201800002032
:101AE0002800002000BFFFF76BFF1948006801289D
:101AF00007D94FF0805017490860BFF34F8FBFF3ED
:101B00006F8FFFF78BFF0446022C20D301F002F801
:101B10001148006811490968884201D3012000E09A
:101B2000002050B900BF502080F31188BFF34F8FC1
:101B3000BFF36F8F00BF00BFFEE7FFF76FFF0446E4
:101B4000022C02D3204600F033FE01F09FFACAE7D0
:101B50008444002004ED00E07400002058000020C0
:101B60002DE9F05F82460E4690469B460A9F0C9CEC
:101B70004FEA8801A522206BFEF756FBA8F1010071
:101B8000216B01EB800929F0070909F0070008B96A
:101B9000012000E0002050B900BF502080F31188E0
:101BA000BFF34F8FBFF36F8F00BF00BFFEE786B15B
:101BB000002507E0715D04F134004155705D00B906
:101BC00002E06D1C0A2DF5D300BF00213D20015518
:101BD00002E0002084F83400052F00D30427E762D8
:101BE000A7640020E064201D00F0EBFC04F1180065
:101BF00000F0E7FC2461C7F10500A06164620020E9
:101C0000206584F8540084F855005A4651464846E9
:101C100000F050F920600B9808B10B980460BDE803
:101C2000F09F000010B5002407E004EB84010F4A88
:101C300002EB810000F0B8FC641C052CF5D30C48C5
:101C400000F0B2FC0B4800F0AFFC0B4800F0ACFC1D
:101C50000A4800F0A9FC0A4800F0A6FC044809491B
:101C6000086004480849086010BD00008444002052
:101C7000E8440020FC4400201045002024450020BA
:101C800038450020480000204C00002010B50146D7
:101C9000164800E0006803688B42FBD302464368A5
:101CA00013448B4204D143684C682344436001468B
:101CB0000A464B6813440468A34211D10C4C0368D4
:101CC0002468A34208D04B680468646823444B60CE
:101CD00003681B680B6005E0054B1B680B6001E0A7
:101CE00003680B60884200D0016010BD0C0000202A
:101CF000140000200A490968096809B9012100E0B7
:101D0000002121B14FF0FF31064A116006E004497D
:101D10000968C968C868034A4168116070470000D3
:101D200048000020740000200E480068401C08B9DC
:101D3000012000E0002050B900BF502080F311883E
:101D4000BFF34F8FBFF36F8F00BF00BFFEE700BF31
:101D5000502080F31188BFF34F8FBFF36F8F00BF08
:101D600000BFFEE72C0000202DE9F04104464FF0B3
:101D7000000800F0CFFE4948006808B9FFF774FE7C
:101D8000474800682040002870D1D4B1083404F0DE
:101D90000700B0B104F00700C0F10800044404F0EB
:101DA000070008B9012000E0002050B900BF502012
:101DB00080F31188BFF34F8FBFF36F8F00BF00BF59
:101DC000FEE7002C52D03748006884424ED8364E89
:101DD0003046056801E02E462D686868A04202D2B0
:101DE00028680028F7D12D48006885423ED0306829
:101DF00000F10808286830606868001B102819D9AD
:101E00002F1907F0070008B9012000E0002050B9A1
:101E100000BF502080F31188BFF34F8FBFF36F8F47
:101E200000BF00BFFEE76868001B78606C60384642
:101E3000FFF72CFF1B4968680968081A19490860F0
:101E40000846006819490968884203D215480068A5
:101E500016490860124968680968084368600020EC
:101E6000286013480068401C1149086001F00EF911
:101E700008F0070008B9012000E0002050B900BFB9
:101E8000502080F31188BFF34F8FBFF36F8F00BFD7
:101E900000BFFEE74046BDE8F081000014000020CE
:101EA00028000020180000200C0000201C0000204A
:101EB00020000020001F4FF080730360001F21F0FE
:101EC00001030360001F054B036014380260001F0C
:101ED0006FF002030360203870470000291D0008DE
:101EE0002DE9F04F8CB0074600200A904AA090E8F8
:101EF000004CC068CDE905BECDF810A007900FF2E8
:101F00001C1ADAE9000ACDE9020A0FF2101ADAE91E
:101F1000000ACDE9000A44484068C0F381000B90F4
:101F20000B9820B1012804D002283FD103E03F4A9A
:101F30003EE03E4A3CE03C48406800F4803CBCF552
:101F4000803F12D13848C06A00F08048B8F1000FD5
:101F500001D1364C00E0364C3348406800F400397B
:101F6000B9F5003F02D1334C00E0324C2E484068B6
:101F7000C0F383412C48406800F0006008B141F094
:101F800010012948406800F0804008B141F020016C
:101F90000F2901D2891C06E00F2903D33E2901D85D
:101FA000491C00E03F2104FB01F201E01F4A00BF91
:101FB00000BF1D484068C0F3031504A8465D22FA1F
:101FC00006F319484068C0F3022502A8465D23FACB
:101FD00006F0099014484068C0F3C2251DF805605A
:101FE00023FA06F0089037B1012F06D0022F06D051
:101FF000032F0AD106E00A9208E00A9306E0099846
:102000000A9003E008980A9000E000BF00BF0A9819
:102010000CB0BDE8F08F00000000000000000000E0
:1020200001020304060708090010024000127A00AA
:10203000006CDC0200093D00064A02EB90110968C1
:1020400000F01F0301229A401143024B03EB901250
:102050001160704700100240064A02EB90110968B7
:1020600000F01F0301229A409143024B03EB9012B0
:102070001160704700100240064A02EB9011096897
:1020800000F01F0301229A401143024B03EB901210
:102090001160704700100240002000213F4A126882
:1020A00042F480323D4B1A6000BF401C3B4A12682C
:1020B00002F4003119B94FF6FF729042F5D1374A58
:1020C000126802F400320AB900BFFEE7334AD2694F
:1020D00042F08052314BDA61314A126842F4404298
:1020E0002F4B1A602D4A52682C4B5A601A46526880
:1020F0005A601A46526842F480625A601A46526820
:1021000022F440325A601A46526842F440325A6011
:102110001A465268234B1A40204B5A601A4652689E
:10212000214B1A431D4B5A601A46126842F08072C6
:102130001A6000BF194A126802F00072002AF9D032
:10214000174A126842F48032154B1A6000BF144AD5
:10215000526802F48032002AF9D0114A126842F41F
:1021600000320F4B1A6000BF0D4A526802F4003271
:10217000002AF9D0094A526822F00302074B5A603C
:102180001A46526842F002025A6000BF034A52687F
:1021900002F00802002AF9D0704700000010024047
:1021A00000700040FFFFC3B70000340810B5FFF710
:1021B00073FF10BD00204FF0E02108614861886185
:1021C000704700000024002543E022A0FEF78AF9B2
:1021D00001212848FFF770FA01280BD0012D35D1D5
:1021E00000250023032201212348006800F0C4FDDC
:1021F00000242BE005B90125641C322C26D31F488E
:102200000068A8B11EA0FEF76DF900BFBFF34F8FA5
:102210001A48001D006800F4E06020490843001DD2
:102220001649091D0860BFF34F8F00BF00BFFEE7CE
:102230001BA0FEF757F9FFF7BDFF2248FFF77CF917
:102240000C48FFF779F92048FFF78EFA0A2000F0D2
:1022500055FBBAE720746865207468726561645F35
:102260004B45592069732072756E6E696E670D0A51
:1022700000000000000801400000002008ED00E020
:10228000456E7465722049415020426F6F746C6FC7
:1022900061646572202E2E2E0D0A00000000FA05E2
:1022A000456E7465722073797374656D204953505F
:1022B00020426F6F746C6F61646572202E2E2E0D3C
:1022C0000A000000000C014000F0FF1F08B50124C7
:1022D00039E01DA0FEF706F92348FFF7ABF823A06D
:1022E000FEF700F94FF4FA736A464FF0FF31002011
:1022F00000F07CFE012816D0012C0FD104212048CB
:10230000FFF7E2F9012801D0012000E00020054696
:102310002A4604211A48FFF7E1F814E0042118487E
:10232000FFF7DAF80FE0009800F0010058B1012C37
:1023300001D0012000E00020044612A0FEF7D2F8F0
:1023400016A0FEF7CFF8C4E774686520746872655C
:1023500061645F4C45442069732072756E6E696ECE
:1023600067200D0A00000000A086010074657374E8
:10237000207468652064656C61790D0A00000000B6
:10238000000C014048656C6C6F2C576541637420EC
:1023900053747564696F0D0A0000000048656C6C29
:1023A0006F2C4672656552544F530D0A00000000B1
:1023B00010B540F20260FFF73FFE40F20E60FFF7FB
:1023C0003BFE4FF40073032218210F48FFF716F964
:1023D0004FF48063032204210B48FFF70FF90B48E9
:1023E00000F062F84FF4E131084800F011F80421E0
:1023F000064800F0B5F80821044800F0B9F8034891
:1024000000F09AF810BD00000008014000380140BB
:102410002DE9F04704460D460027B846B946002688
:102420001D49601A8C421CD006DC1C48204470B147
:10243000B0F5806F1FD10FE0B0F5806F16D0B0F50A
:102440006C4F18D10320FFF74BFD074614E0022024
:10245000FFF746FD07460FE00220FFF741FD074664
:102460000AE00220FFF73CFD074605E00220FFF7E7
:1024700037FD074600E000BF00BF07EB5500B0FB8B
:10248000F5F64FF6F07006EA000806F00F0948EA84
:102490000900A060BDE8F087004C004000BCFFBF11
:1024A000C1F308024260704710B504462049601A23
:1024B0008C4228D006DC1F48204490B1B0F5806FD4
:1024C00033D117E0B0F5806F26D0B0F56C4F2CD12A
:1024D00040F20E30FFF7D0FD40F20E30FFF7BCFDAA
:1024E00024E040F21140FFF7C7FD40F21140FFF732
:1024F000B3FD1BE040F21240FFF7BEFD40F2124078
:10250000FFF7AAFD12E040F21340FFF7B5FD40F2DD
:102510001340FFF7A1FD09E040F21440FFF7ACFDC6
:1025200040F21440FFF798FD00E000BF00BF10BD6F
:10253000004C004000BCFFBFC16841F40051C160C5
:10254000704710B5024602EB9110006801F01F04BD
:102550000123A340184008B1012010BD0020FCE772
:102560000A460021C16821F004011143C16070478F
:102570000A460021C16821F008011143C16070477B
:1025800001460A69D1E901309860D1E90103586038
:102590005068884201D18868506000200861106846
:1025A000401E10601068704700F1080141604FF054
:1025B000FF31816000F10801C1600161002101600B
:1025C000704700210161704710B502460B685C1C22
:1025D0000CB9106907E002F1080000E040684468A7
:1025E00024689C42FAD944684C604C68A1608860B9
:1025F00041600A611468641C146010BD42684A603E
:1026000093688B60936859609160086103685B1CF4
:102610000360704700BF502080F31188BFF34F8FD5
:10262000BFF36F8F00BF0E480068401C0C49086064
:1026300008460068012812D10A480068C0B208B9EB
:10264000012000E0002050B900BF502080F3118825
:10265000BFF34F8FBFF36F8F00BF00BFFEE7704720
:102660002C00002004ED00E00D48006850B900BFC8
:10267000502080F31188BFF34F8FBFF36F8F00BFDF
:1026800000BFFEE706480068401E0549086008468E
:10269000006820B9002080F3118800BF00BF704798
:1026A0002C00002070B506463546002E44D0083D6B
:1026B0002C46224960680968084008B1012000E002
:1026C000002050B900BF502080F31188BFF34F8F16
:1026D000BFF36F8F00BF00BFFEE7206808B901207D
:1026E00000E0002050B900BF502080F31188BFF3F4
:1026F0004F8FBFF36F8F00BF00BFFEE70F496068C9
:1027000009680840C0B12068B0B90C496068096820
:102710008843606000F0FEF9094960680968084470
:10272000074908602046FFF7B1FA06480068401CD8
:102730000449086000F0AAFC70BD000028000020D9
:102740001800002024000020154800684FF47A711A
:10275000B0FBF1F013490860084600686FF07F4154
:10276000B1FBF0F0104908600D480068B0FBF0F0D4
:102770002D21B1FBF0F00D49086000204FF0E02161
:1027800008618861064800684FF47A71B0FBF1F087
:10279000401E4FF0E02148610720086170470000AB
:1027A0000800002030000020340000203800002005
:1027B0002DE9F04104464E480068844201D94C4856
:1027C00004684FF0E020006920F001004FF0E021A4
:1027D000086108468169601E464A126802FB0015BE
:1027E00045480068854202D9434800682D1A72B6F0
:1027F000BFF34F8FBFF36F8FFEF73EFE80B94FF0F0
:10280000E02080694FF0E02148610846006940F00F
:102810000100086137480068401E486162B665E003
:102820004FF0E020456100204FF0E021886108462C
:10283000006940F001000861A046B8F1000F04D023
:10284000BFF34F8F30BFBFF36F8F62B6BFF34F8FB1
:10285000BFF36F8F72B6BFF34F8FBFF36F8F06203A
:102860004FF0E02108610846006900F48030B8B1FB
:1028700020490968491E4FF0E0229269AA1A881A75
:102880001D490968884203D31A490968884202D958
:1028900018490968481E4FF0E0214861661E12E0A1
:1028A0001448006860434FF0E0218969471A1148D5
:1028B0000068B7FBF0F6701C0E4909684843C01B5E
:1028C0004FF0E021486100204FF0E0218861084688
:1028D000006940F001000861304600F0FBF805484F
:1028E0000068401E4FF0E021486162B6BDE8F0810B
:1028F00034000020300000203800002070B504466D
:102900000025D4B11248006808B9012000E0002079
:1029100050B900BF502080F31188BFF34F8FBFF331
:102920006F8F00BF00BFFEE700F0F4F800212046E3
:10293000FEF798FF00F0AAFB05463DB94FF0805026
:1029400004490860BFF34F8FBFF36F8F70BD000065
:102950007C00002004ED00E070B50546FFF75AFE4C
:1029600015B93048006800E028460446201DFFF7EE
:1029700007FE78B9E06A00EB80002B4951F820008F
:1029800040B994F82C1001208840284909688143F7
:1029900026480160A06A18B104F11800FFF7F0FDA5
:1029A00023480068401C224908601E480068844291
:1029B00009D1211D1F48FFF721FE1F480068401C58
:1029C0001D49086009E01D480068401E1B49086059
:1029D0002046FFF719F8FFF78DF9FFF745FE184875
:1029E0000068E8B10F480068844219D115480068B2
:1029F00008B9012000E0002050B900BF502080F34A
:102A00001188BFF34F8FBFF36F8F00BF00BFFEE78A
:102A10004FF080500C490860BFF34F8FBFF36F8FAA
:102A200070BD000044000020844400205C000020B1
:102A30007000002024450020500000205400002099
:102A4000600000207C00002004ED00E01CB51A4866
:102A500000210B468022CDE9001018A1194800F092
:102A60005BF90446012C15D100BF502080F311887A
:102A7000BFF34F8FBFF36F8F00BF4FF0FF3012498E
:102A8000086001201149086000201149086000F029
:102A90008FF810E0601C08B1012000E0002050B960
:102AA00000BF502080F31188BFF34F8FBFF36F8FAB
:102AB00000BF00BFFEE71CBD7800002049444C4524
:102AC00000000000E51A00087400002060000020EB
:102AD000580000200D49096801440D4A12689142CE
:102AE00001D8012100E0002151B900BF502181F33C
:102AF0001188BFF34F8FBFF36F8F00BF00BFFEE79A
:102B0000024909680144014A1160704758000020D9
:102B10007400002002480068401C014908607047AA
:102B20007C0000201D48006818B101201C49086085
:102B300032E000201A4908601A480068B0FA80F0B4
:102B4000C0F11F0101EB8100174A52F8200008B1C3
:102B5000012000E0002050B900BF502080F3118810
:102B6000BFF34F8FBFF36F8F00BF00BFFEE701EBD6
:102B700081020D4B03EB820042685268426000F113
:102B800008024368934202D1426852684260426838
:102B9000D268064B1A6000BF704700007C0000201E
:102BA000680000205C0000208444002044000020D5
:102BB0001CB5524800685249884201D0012000E00B
:102BC000002050B900BF502080F31188BFF34F8F11
:102BD000BFF36F8F00BF00BFFEE748480068484959
:102BE000491E884201D0012000E0002050B900BFFA
:102BF000502080F31188BFF34F8FBFF36F8F00BF5A
:102C000000BFFEE73F49084600780190FF200A46D2
:102C100010700846007800909DF8000000F0F00069
:102C20009DF80020904201D1012000E0002050B921
:102C300000BF502080F31188BFF34F8FBFF36F8F19
:102C400000BF00BFFEE79DF8000000F050002E4AD4
:102C5000107007202D4A106009E02C480068401EC3
:102C60002A4A10609DF800004006000E00909DF872
:102C7000000000F080008028EFD024480068C0F1F8
:102C80000700042801D1012000E0002050B900BF56
:102C9000502080F31188BFF34F8FBFF36F8F00BFB9
:102CA00000BFFEE7194800680002184A106010468D
:102CB000008800F4E0601060124A019810700F481C
:102CC0002030006840F470000C492031086008464C
:102CD000006840F070400860FFF736FD00200C49A6
:102CE0000860FDF753FA0B48006840F0404009497E
:102CF0000860FDF737FA00201CBD000000ED00E081
:102D000071C20F4100E400E03C00002040000020C0
:102D10002C00002034EF00E02DE9FF4F85B0804605
:102D200089461746DDE912ABB800FFF71DF80646E5
:102D300056B15820FFF718F804460CB1266304E09A
:102D40003046FFF7AFFC00E000247CB10020CDE965
:102D500000ABCDE902403A4649464046089BFEF7A3
:102D6000FFFE2046FEF7D0FD012501E04FF0FF35C4
:102D7000284609B0BDE8F08F2DE9F04706460D461C
:102D8000174698464FF0010A56B900BF502080F30D
:102D90001188BFF34F8FBFF36F8F00BF00BFFEE7F7
:102DA0003446FFF737FCB8F1000F02D0206DC8F8A9
:102DB000000094F85490022084F85400052F17D294
:102DC000DFE807F01503070B0D00206D2843206591
:102DD00021E0206D401C20651DE025651BE0B9F158
:102DE000020F01D0256501E04FF0000A13E012E068
:102DF000206D401C08B9012000E0002050B900BF40
:102E0000502080F31188BFF34F8FBFF36F8F00BF47
:102E100000BFFEE700BF00BFB9F1010F35D1201D93
:102E2000FFF7AEFB94F82C1001208840194909687F
:102E3000084318490860E16A01EB8101164A02EB78
:102E40008100211DFFF7DAFBA06A08B9012000E02C
:102E5000002050B900BF502080F31188BFF34F8F7E
:102E6000BFF36F8F00BF00BFFEE7FEF743FF0B49C4
:102E7000E06A0968C96A884207D94FF0805008495A
:102E80000860BFF34F8FBFF36F8FFFF7EDFB504626
:102E9000BDE8F0875C00002084440020440000204E
:102EA00004ED00E02DE9F0414FF0000844480068CF
:102EB00000287CD143480068451C4248056015BB8A
:102EC00041480068006808B9012000E0002050B9BE
:102ED00000BF502080F31188BFF34F8FBFF36F8F77
:102EE00000BF00BFFEE73848076838480068364929
:102EF00008603648076036480068401C344908605E
:102F0000FEF7F8FE00BF3348006885423CD300BF9F
:102F10002D480068006808B9012000E0002020B1B9
:102F20004FF0FF302B4908602DE027480068C0684B
:102F3000C4686668B54202D22648066023E0201DB8
:102F4000FFF71EFBA06A18B104F11800FFF718FB89
:102F500094F82C10012088401F49096808431E4935
:102F60000860E16A01EB81011C4A02EB8100211D2E
:102F7000FFF744FB1A49E06A0968C96A8842C7D367
:102F80004FF00108C4E700BF15480068C06A00EBB5
:102F90008000124951F82000012801D94FF00108A2
:102FA0001048006808B14FF0010805E0FFE70E483F
:102FB0000068401C0C4908604046BDE8F0810000F4
:102FC0007C00002058000020480000204C00002019
:102FD0006C000020740000205C000020844400206D
:102FE0004400002068000020640000202DE9F0412A
:102FF0000746884614461D46FFF70CFB214800682B
:1030000090F85400022818D01E49096801F15000B8
:10301000096DB943016001201A49096881F854001B
:103020005DB101212846FEF71DFC4FF08050164986
:103030000860BFF34F8FBFF36F8FFFF715FBFFF7EC
:10304000E9FA1CB10F480068006D20600D48006867
:1030500090F85400022801D0002608E009490968C8
:1030600001F15000096D21EA0801016001260020EC
:103070000449096881F85400FFF7F6FA3046BDE8C4
:10308000F08100004400002004ED00E070B5002451
:1030900000263648006850B900BF502080F31188E0
:1030A000BFF34F8FBFF36F8F00BF00BFFEE7FFF787
:1030B000B1FA2E480068401E2C4908600846006896
:1030C00000284FD12A48006800284BD024E0294826
:1030D000C068C46804F11800FFF752FA201DFFF71A
:1030E0004FFA94F82C1001208840234909680843BE
:1030F00021490860E16A01EB8101204A02EB81006D
:10310000211DFFF77BFA1E49E06A0968C96A8842F7
:1031100002D301201B4908601648006808B9012045
:1031200000E000200028D2D00CB1FEF7E3FD1648E5
:10313000056865B100BFFFF7B5FE10B10120114968
:1031400008606D1E002DF6D100200F4908600D4863
:10315000006838B1012630070C490860BFF34F8F73
:10316000BFF36F8FFFF780FA304670BD7C00002000
:1031700054000020104500205C0000208444002002
:1031800044000020680000206400002004ED00E0FE
:10319000637C777BF26B6FC53001672BFED7AB7614
:1031A000CA82C97DFA5947F0ADD4A2AF9CA472C0BF
:1031B000B7FD9326363FF7CC34A5E5F171D831152C
:1031C00004C723C31896059A071280E2EB27B2754D
:1031D00009832C1A1B6E5AA0523BD6B329E32F84C5
:1031E00053D100ED20FCB15B6ACBBE394A4C58CFBD
:1031F000D0EFAAFB434D338545F9027F503C9FA891
:1032000051A3408F929D38F5BCB6DA2110FFF3D25E
:10321000CD0C13EC5F974417C4A77E3D645D197312
:1032200060814FDC222A908846EEB814DE5E0BDB0C
:10323000E0323A0A4906245CC2D3AC629195E47943
:10324000E7C8376D8DD54EA96C56F4EA657AAE089D
:10325000BA78252E1CA6B4C6E8DD741F4BBD8B8A38
:10326000703EB5664803F60E613557B986C11D9E9E
:10327000E1F8981169D98E949B1E87E9CE5528DF15
:103280008CA1890DBFE6426841992D0FB054BB1641
:10329000C66363A5F87C7C84EE777799F67B7B8D9B
:1032A000FFF2F20DD66B6BBDDE6F6FB191C5C554E9
:1032B0006030305002010103CE6767A9562B2B7D89
:1032C000E7FEFE19B5D7D7624DABABE6EC76769A42
:1032D0008FCACA451F82829D89C9C940FA7D7D87F0
:1032E000EFFAFA15B25959EB8E4747C9FBF0F00BCC
:1032F00041ADADECB3D4D4675FA2A2FD45AFAFEA58
:10330000239C9CBF53A4A4F7E47272969BC0C05B3D
:1033100075B7B7C2E1FDFD1C3D9393AE4C26266AFE
:103320006C36365A7E3F3F41F5F7F70283CCCC4FDF
:103330006834345C51A5A5F4D1E5E534F9F1F10820
:10334000E2717193ABD8D873623131532A15153FAE
:103350000804040C95C7C752462323659DC3C35E6A
:1033600030181828379696A10A05050F2F9A9AB596
:103370000E070709241212361B80809BDFE2E23D14
:10338000CDEBEB264E2727697FB2B2CDEA75759F4C
:103390001209091B1D83839E582C2C74341A1A2E73
:1033A000361B1B2DDC6E6EB2B45A5AEE5BA0A0FB2E
:1033B000A45252F6763B3B4DB7D6D6617DB3B3CE21
:1033C0005229297BDDE3E33E5E2F2F71138484971E
:1033D000A65353F5B9D1D16800000000C1EDED2C22
:1033E00040202060E3FCFC1F79B1B1C8B65B5BED07
:1033F000D46A6ABE8DCBCB4667BEBED97239394B13
:10340000944A4ADE984C4CD4B05858E885CFCF4AFD
:10341000BBD0D06BC5EFEF2A4FAAAAE5EDFBFB1698
:10342000864343C59A4D4DD76633335511858594F0
:103430008A4545CFE9F9F91004020206FE7F7F8133
:10344000A05050F0783C3C44259F9FBA4BA8A8E37D
:10345000A25151F35DA3A3FE804040C0058F8F8A27
:103460003F9292AD219D9DBC70383848F1F5F5042E
:1034700063BCBCDF77B6B6C1AFDADA75422121632F
:1034800020101030E5FFFF1AFDF3F30EBFD2D26D0E
:1034900081CDCD4C180C0C1426131335C3ECEC2F36
:1034A000BE5F5FE1359797A2884444CC2E17173949
:1034B00093C4C45755A7A7F2FC7E7E827A3D3D4750
:1034C000C86464ACBA5D5DE73219192BE673739575
:1034D000C06060A0198181989E4F4FD1A3DCDC7F32
:1034E00044222266542A2A7E3B9090AB0B88888324
:1034F0008C4646CAC7EEEE296BB8B8D32814143CE4
:10350000A7DEDE79BC5E5EE2160B0B1DADDBDB7663
:10351000DBE0E03B64323256743A3A4E140A0A1E3B
:10352000924949DB0C06060A4824246CB85C5CE42A
:103530009FC2C25DBDD3D36E43ACACEFC46262A682
:10354000399191A8319595A4D3E4E437F279798B38
:10355000D5E7E7328BC8C8436E373759DA6D6DB798
:10356000018D8D8CB1D5D5649C4E4ED249A9A9E070
:10357000D86C6CB4AC5656FAF3F4F407CFEAEA25EB
:10358000CA6565AFF47A7A8E47AEAEE910080818BE
:103590006FBABAD5F07878884A25256F5C2E2E72DE
:1035A000381C1C2457A6A6F173B4B4C797C6C651DD
:1035B000CBE8E823A1DDDD7CE874749C3E1F1F216D
:1035C000964B4BDD61BDBDDC0D8B8B860F8A8A85EA
:1035D000E07070907C3E3E4271B5B5C4CC6666AA80
:1035E000904848D806030305F7F6F6011C0E0E12A4
:1035F000C26161A36A35355FAE5757F969B9B9D071
:103600001786869199C1C1583A1D1D27279E9EB9DC
:10361000D9E1E138EBF8F8132B9898B32211113364
:10362000D26969BBA9D9D970078E8E89339494A7C2
:103630002D9B9BB63C1E1E2215878792C9E9E92067
:1036400087CECE49AA5555FF50282878A5DFDF7AC6
:10365000038C8C8F59A1A1F8098989801A0D0D1747
:1036600065BFBFDAD7E6E631844242C6D06868B8A3
:10367000824141C3299999B05A2D2D771E0F0F1100
:103680007BB0B0CBA85454FC6DBBBBD62C16163AFD
:10369000A5C6636384F87C7C99EE77778DF67B7B97
:1036A0000DFFF2F2BDD66B6BB1DE6F6F5491C5C5E5
:1036B0005060303003020101A9CE67677D562B2B85
:1036C00019E7FEFE62B5D7D7E64DABAB9AEC76763E
:1036D000458FCACA9D1F82824089C9C987FA7D7DEC
:1036E00015EFFAFAEBB25959C98E47470BFBF0F0C8
:1036F000EC41ADAD67B3D4D4FD5FA2A2EA45AFAF54
:10370000BF239C9CF753A4A496E472725B9BC0C039
:10371000C275B7B71CE1FDFDAE3D93936A4C2626FA
:103720005A6C3636417E3F3F02F5F7F74F83CCCCDB
:103730005C683434F451A5A534D1E5E508F9F1F11C
:1037400093E2717173ABD8D8536231313F2A1515AA
:103750000C0804045295C7C7654623235E9DC3C366
:1037600028301818A13796960F0A0505B52F9A9A92
:10377000090E0707362412129B1B80803DDFE2E210
:1037800026CDEBEB694E2727CD7FB2B29FEA757548
:103790001B1209099E1D838374582C2C2E341A1A6F
:1037A0002D361B1BB2DC6E6EEEB45A5AFB5BA0A02A
:1037B000F6A452524D763B3B61B7D6D6CE7DB3B31D
:1037C0007B5229293EDDE3E3715E2F2F971384841A
:1037D000F5A6535368B9D1D1000000002CC1EDED1E
:1037E000604020201FE3FCFCC879B1B1EDB65B5B03
:1037F000BED46A6A468DCBCBD967BEBE4B7239390F
:10380000DE944A4AD4984C4CE8B058584A85CFCFF9
:103810006BBBD0D02AC5EFEFE54FAAAA16EDFBFB94
:10382000C5864343D79A4D4D5566333394118585EC
:10383000CF8A454510E9F9F90604020281FE7F7F2F
:10384000F0A0505044783C3CBA259F9FE34BA8A879
:10385000F3A25151FE5DA3A3C08040408A058F8F23
:10386000AD3F9292BC219D9D4870383804F1F5F52A
:10387000DF63BCBCC177B6B675AFDADA634221212B
:10388000302010101AE5FFFF0EFDF3F36DBFD2D20A
:103890004C81CDCD14180C0C352613132FC3ECEC32
:1038A000E1BE5F5FA2359797CC884444392E171745
:1038B0005793C4C4F255A7A782FC7E7E477A3D3D4C
:1038C000ACC86464E7BA5D5D2B32191995E6737371
:1038D000A0C0606098198181D19E4F4F7FA3DCDC2E
:1038E000664422227E542A2AAB3B9090830B888820
:1038F000CA8C464629C7EEEED36BB8B83C281414E0
:1039000079A7DEDEE2BC5E5E1D160B0B76ADDBDB5F
:103910003BDBE0E0566432324E743A3A1E140A0A37
:10392000DB9249490A0C06066C482424E4B85C5C26
:103930005D9FC2C26EBDD3D3EF43ACACA6C462627E
:10394000A8399191A431959537D3E4E48BF2797934
:1039500032D5E7E7438BC8C8596E3737B7DA6D6D94
:103960008C018D8D64B1D5D5D29C4E4EE049A9A96C
:10397000B4D86C6CFAAC565607F3F4F425CFEAEAE7
:10398000AFCA65658EF47A7AE947AEAE18100808BA
:10399000D56FBABA88F078786F4A2525725C2E2EDA
:1039A00024381C1CF157A6A6C773B4B45197C6C6D9
:1039B00023CBE8E87CA1DDDD9CE87474213E1F1F69
:1039C000DD964B4BDC61BDBD860D8B8B850F8A8AE6
:1039D00090E07070427C3E3EC471B5B5AACC66667C
:1039E000D89048480506030301F7F6F6121C0E0EA0
:1039F000A3C261615F6A3535F9AE5757D069B9B96D
:103A0000911786865899C1C1273A1D1DB9279E9ED8
:103A100038D9E1E113EBF8F8B32B98983322111160
:103A2000BBD2696970A9D9D989078E8EA7339494BE
:103A3000B62D9B9B223C1E1E9215878720C9E9E963
:103A40004987CECEFFAA5555785028287AA5DFDFC2
:103A50008F038C8CF859A1A180098989171A0D0D43
:103A6000DA65BFBF31D7E6E6C6844242B8D068689F
:103A7000C3824141B0299999775A2D2D111E0F0FFC
:103A8000CB7BB0B0FCA85454D66DBBBB3A2C1616F9
:103A900063A5C6637C84F87C7799EE777B8DF67B93
:103AA000F20DFFF26BBDD66B6FB1DE6FC55491C5E1
:103AB000305060300103020167A9CE672B7D562B81
:103AC000FE19E7FED762B5D7ABE64DAB769AEC763A
:103AD000CA458FCA829D1F82C94089C97D87FA7DE8
:103AE000FA15EFFA59EBB25947C98E47F00BFBF0C4
:103AF000ADEC41ADD467B3D4A2FD5FA2AFEA45AF50
:103B00009CBF239CA4F753A47296E472C05B9BC035
:103B1000B7C275B7FD1CE1FD93AE3D93266A4C26F6
:103B2000365A6C363F417E3FF702F5F7CC4F83CCD7
:103B3000345C6834A5F451A5E534D1E5F108F9F118
:103B40007193E271D873ABD831536231153F2A15A6
:103B5000040C0804C75295C723654623C35E9DC362
:103B60001828301896A13796050F0A059AB52F9A8E
:103B700007090E0712362412809B1B80E23DDFE20C
:103B8000EB26CDEB27694E27B2CD7FB2759FEA7544
:103B9000091B1209839E1D832C74582C1A2E341A6B
:103BA0001B2D361B6EB2DC6E5AEEB45AA0FB5BA026
:103BB00052F6A4523B4D763BD661B7D6B3CE7DB319
:103BC000297B5229E33EDDE32F715E2F8497138416
:103BD00053F5A653D168B9D100000000ED2CC1ED1A
:103BE00020604020FC1FE3FCB1C879B15BEDB65BFF
:103BF0006ABED46ACB468DCBBED967BE394B72390B
:103C00004ADE944A4CD4984C58E8B058CF4A85CFF5
:103C1000D06BBBD0EF2AC5EFAAE54FAAFB16EDFB90
:103C200043C586434DD79A4D3355663385941185E8
:103C300045CF8A45F910E9F9020604027F81FE7F2B
:103C400050F0A0503C44783C9FBA259FA8E34BA875
:103C500051F3A251A3FE5DA340C080408F8A058F1F
:103C600092AD3F929DBC219D38487038F504F1F526
:103C7000BCDF63BCB6C177B6DA75AFDA2163422127
:103C800010302010FF1AE5FFF30EFDF3D26DBFD206
:103C9000CD4C81CD0C14180C13352613EC2FC3EC2E
:103CA0005FE1BE5F97A2359744CC884417392E1741
:103CB000C45793C4A7F255A77E82FC7E3D477A3D48
:103CC00064ACC8645DE7BA5D192B32197395E6736D
:103CD00060A0C060819819814FD19E4FDC7FA3DC2A
:103CE000226644222A7E542A90AB3B9088830B881C
:103CF00046CA8C46EE29C7EEB8D36BB8143C2814DC
:103D0000DE79A7DE5EE2BC5E0B1D160BDB76ADDB5B
:103D1000E03BDBE0325664323A4E743A0A1E140A33
:103D200049DB9249060A0C06246C48245CE4B85C22
:103D3000C25D9FC2D36EBDD3ACEF43AC62A6C4627A
:103D400091A8399195A43195E437D3E4798BF27930
:103D5000E732D5E7C8438BC837596E376DB7DA6D90
:103D60008D8C018DD564B1D54ED29C4EA9E049A968
:103D70006CB4D86C56FAAC56F407F3F4EA25CFEAE3
:103D800065AFCA657A8EF47AAEE947AE08181008B6
:103D9000BAD56FBA7888F078256F4A252E725C2ED6
:103DA0001C24381CA6F157A6B4C773B4C65197C6D5
:103DB000E823CBE8DD7CA1DD749CE8741F213E1F65
:103DC0004BDD964BBDDC61BD8B860D8B8A850F8AE2
:103DD0007090E0703E427C3EB5C471B566AACC6678
:103DE00048D8904803050603F601F7F60E121C0E9C
:103DF00061A3C261355F6A3557F9AE57B9D069B969
:103E000086911786C15899C11D273A1D9EB9279ED4
:103E1000E138D9E1F813EBF898B32B98113322115C
:103E200069BBD269D970A9D98E89078E94A73394BA
:103E30009BB62D9B1E223C1E87921587E920C9E95F
:103E4000CE4987CE55FFAA5528785028DF7AA5DFBE
:103E50008C8F038CA1F859A1898009890D171A0D3F
:103E6000BFDA65BFE631D7E642C6844268B8D0689B
:103E700041C3824199B029992D775A2D0F111E0FF8
:103E8000B0CB7BB054FCA854BBD66DBB163A2C16F5
:103E90006363A5C67C7C84F8777799EE7B7B8DF68F
:103EA000F2F20DFF6B6BBDD66F6FB1DEC5C55491DD
:103EB00030305060010103026767A9CE2B2B7D567D
:103EC000FEFE19E7D7D762B5ABABE64D76769AEC36
:103ED000CACA458F82829D1FC9C940897D7D87FAE4
:103EE000FAFA15EF5959EBB24747C98EF0F00BFBC0
:103EF000ADADEC41D4D467B3A2A2FD5FAFAFEA454C
:103F00009C9CBF23A4A4F753727296E4C0C05B9B31
:103F1000B7B7C275FDFD1CE19393AE3D26266A4CF2
:103F200036365A6C3F3F417EF7F702F5CCCC4F83D3
:103F300034345C68A5A5F451E5E534D1F1F108F914
:103F4000717193E2D8D873AB3131536215153F2AA2
:103F500004040C08C7C7529523236546C3C35E9D5E
:103F6000181828309696A13705050F0A9A9AB52F8A
:103F70000707090E1212362480809B1BE2E23DDF08
:103F8000EBEB26CD2727694EB2B2CD7F75759FEA40
:103F900009091B1283839E1D2C2C74581A1A2E3467
:103FA0001B1B2D366E6EB2DC5A5AEEB4A0A0FB5B22
:103FB0005252F6A43B3B4D76D6D661B7B3B3CE7D15
:103FC00029297B52E3E33EDD2F2F715E8484971312
:103FD0005353F5A6D1D168B900000000EDED2CC116
:103FE00020206040FCFC1FE3B1B1C8795B5BEDB6FB
:103FF0006A6ABED4CBCB468DBEBED96739394B7207
:104000004A4ADE944C4CD4985858E8B0CFCF4A85F1
:10401000D0D06BBBEFEF2AC5AAAAE54FFBFB16ED8C
:104020004343C5864D4DD79A3333556685859411E4
:104030004545CF8AF9F910E9020206047F7F81FE27
:104040005050F0A03C3C44789F9FBA25A8A8E34B71
:104050005151F3A2A3A3FE5D4040C0808F8F8A051B
:104060009292AD3F9D9DBC2138384870F5F504F122
:10407000BCBCDF63B6B6C177DADA75AF2121634223
:1040800010103020FFFF1AE5F3F30EFDD2D26DBF02
:10409000CDCD4C810C0C141813133526ECEC2FC32A
:1040A0005F5FE1BE9797A2354444CC881717392E3D
:1040B000C4C45793A7A7F2557E7E82FC3D3D477A44
:1040C0006464ACC85D5DE7BA19192B32737395E669
:1040D0006060A0C0818198194F4FD19EDCDC7FA326
:1040E000222266442A2A7E549090AB3B8888830B18
:1040F0004646CA8CEEEE29C7B8B8D36B14143C28D8
:10410000DEDE79A75E5EE2BC0B0B1D16DBDB76AD57
:10411000E0E03BDB323256643A3A4E740A0A1E142F
:104120004949DB9206060A0C24246C485C5CE4B81E
:10413000C2C25D9FD3D36EBDACACEF436262A6C476
:104140009191A8399595A431E4E437D379798BF22C
:10415000E7E732D5C8C8438B3737596E6D6DB7DA8C
:104160008D8D8C01D5D564B14E4ED29CA9A9E04964
:104170006C6CB4D85656FAACF4F407F3EAEA25CFDF
:104180006565AFCA7A7A8EF4AEAEE94708081810B2
:10419000BABAD56F787888F025256F4A2E2E725CD2
:1041A0001C1C2438A6A6F157B4B4C773C6C65197D1
:1041B000E8E823CBDDDD7CA174749CE81F1F213E61
:1041C0004B4BDD96BDBDDC618B8B860D8A8A850FDE
:1041D000707090E03E3E427CB5B5C4716666AACC74
:1041E0004848D89003030506F6F601F70E0E121C98
:1041F0006161A3C235355F6A5757F9AEB9B9D06965
:1042000086869117C1C158991D1D273A9E9EB927D0
:10421000E1E138D9F8F813EB9898B32B1111332258
:104220006969BBD2D9D970A98E8E89079494A733B6
:104230009B9BB62D1E1E223C87879215E9E920C95B
:10424000CECE49875555FFAA28287850DFDF7AA5BA
:104250008C8C8F03A1A1F859898980090D0D171A3B
:10426000BFBFDA65E6E631D74242C6846868B8D097
:104270004141C3829999B0292D2D775A0F0F111EF4
:10428000B0B0CB7B5454FCA8BBBBD66D16163A2CF1
:1042900052096AD53036A538BF40A39E81F3D7FBBB
:1042A0007CE339829B2FFF87348E4344C4DEE9CB05
:1042B000547B9432A6C2233DEE4C950B42FAC34E7A
:1042C000082EA16628D924B2765BA2496D8BD12530
:1042D00072F8F66486689816D4A45CCC5D65B692D4
:1042E0006C704850FDEDB9DA5E154657A78D9D8478
:1042F00090D8AB008CBCD30AF7E45805B8B3450698
:10430000D02C1E8FCA3F0F02C1AFBD0301138A6BB1
:104310003A9111414F67DCEA97F2CFCEF0B4E673E1
:1043200096AC7422E7AD3585E2F937E81C75DF6E8F
:1043300047F11A711D29C5896FB7620EAA18BE1BF5
:10434000FC563E4BC6D279209ADBC0FE78CD5AF49B
:104350001FDDA8338807C731B11210592780EC5FE1
:1043600060517FA919B54A0D2DE57A9F93C99CEF3D
:10437000A0E03B4DAE2AF5B0C8EBBB3C835399613E
:10438000172B047EBA77D626E169146355210C7D7C
:1043900051F4A7507E4165531A17A4C33A275E967D
:1043A0003BAB6BCB1F9D45F1ACFA58AB4BE3039392
:1043B0002030FA55AD766DF688CC7691F5024C2515
:1043C0004FE5D7FCC52ACBD726354480B562A38FED
:1043D000DEB15A4925BA1B6745EA0E985DFEC0E179
:1043E000C32F7502814CF0128D4697A36BD3F9C68B
:1043F000038F5FE715929C95BF6D7AEB955259DA62
:10440000D4BE832D587421D349E069298EC9C8448C
:1044100075C2896AF48E797899583E6B27B971DD37
:10442000BEE14FB6F088AD17C920AC667DCE3AB478
:1044300063DF4A18E51A31829751336062537F4532
:10444000B16477E0BB6BAE84FE81A01CF9082B94AD
:10445000704868588F45FD1994DE6C87527BF8B719
:10446000AB73D323724B02E2E31F8F576655AB2A1F
:10447000B2EB28072FB5C20386C57B9AD33708A5B0
:10448000302887F223BFA5B202036ABAED16825C18
:104490008ACF1C2BA779B492F307F2F04E69E2A100
:1044A00065DAF4CD0605BED5D134621FC4A6FE8AF6
:1044B000342E539DA2F355A0058AE132A4F6EB7584
:1044C0000B83EC394060EFAA5E719F06BD6E105100
:1044D0003E218AF996DD063DDD3E05AE4DE6BD4640
:1044E00091548DB571C45D050406D46F605015FFFD
:1044F0001998FB24D6BDE997894043CC67D99E77AC
:10450000B0E842BD07898B88E7195B3879C8EEDBD4
:10451000A17C0A477C420FE9F8841EC90000000014
:1045200009808683322BED481E1170AC6C5A724E96
:10453000FD0EFFFB0F8538563DAED51E362D3927B3
:104540000A0FD964685CA6219B5B54D124362E3AAD
:104550000C0A67B19357E70FB4EE96D21B9B919E5E
:1045600080C0C54F61DC20A25A774B691C121A1615
:10457000E293BA0AC0A02AE53C22E043121B171DB1
:104580000E090D0BF28BC7AD2DB6A8B9141EA9C824
:1045900057F11985AF75074CEE99DDBBA37F60FD20
:1045A000F701269F5C72F5BC44663BC55BFB7E341D
:1045B0008B432976CB23C6DCB6EDFC68B8E4F16307
:1045C000D731DCCA426385101397224084C611207C
:1045D000854A247DD2BB3DF8AEF93211C729A16DC1
:1045E0001D9E2F4BDCB230F30D8652EC77C1E3D029
:1045F0002BB3166CA970B999119448FA47E9642253
:10460000A8FC8CC4A0F03F1A567D2CD8223390EF22
:1046100087494EC7D938D1C18CCAA2FE98D40B366F
:10462000A6F581CFA57ADE28DAB78E263FADBFA4E6
:104630002C3A9DE45078920D6A5FCC9B547E466282
:10464000F68D13C290D8B8E82E39F75E82C3AFF565
:104650009F5D80BE69D0937C6FD52DA9CF2512B305
:10466000C8AC993B10187DA7E89C636EDB3BBB7B15
:10467000CD2678096E5918F4EC9AB701834F9AA8A1
:10468000E6956E65AAFFE67E21BCCF08EF15E8E649
:10469000BAE79BD94A6F36CEEA9F09D429B07CD6B7
:1046A00031A4B2AF2A3F2331C6A5943035A266C0EB
:1046B000744EBC37FC82CAA6E090D0B033A7D815A0
:1046C000F104984A41ECDAF77FCD500E1791F62F9E
:1046D000764DD68D43EFB04DCCAA4D54E49604DF11
:1046E0009ED1B5E34C6A881BC12C1FB84665517F2B
:1046F0009D5EEA04018C355DFA877473FB0B412ED5
:10470000B3671D5A92DBD252E91056336DD6471368
:104710009AD7618C37A10C7A59F8148EEB133C8927
:10472000CEA927EEB761C935E11CE5ED7A47B13C6A
:104730009CD2DF5955F2733F1814CE7973C737BF37
:1047400053F7CDEA5FFDAA5BDF3D6F147844DB864B
:10475000CAAFF381B968C43E3824342CC2A3405F89
:10476000161DC372BCE2250C283C498BFF0D9541F8
:1047700039A80171080CB3DED8B4E49C6456C1902A
:104780007BCB8461D532B670486C5C74D0B857422C
:104790005051F4A7537E4165C31A17A4963A275E79
:1047A000CB3BAB6BF11F9D45ABACFA58934BE3038E
:1047B000552030FAF6AD766D9188CC7625F5024C11
:1047C000FC4FE5D7D7C52ACB802635448FB562A3E9
:1047D00049DEB15A6725BA1B9845EA0EE15DFEC075
:1047E00002C32F7512814CF0A38D4697C66BD3F987
:1047F000E7038F5F9515929CEBBF6D7ADA9552595E
:104800002DD4BE83D35874212949E069448EC9C888
:104810006A75C28978F48E796B99583EDD27B97133
:10482000B6BEE14F17F088AD66C920ACB47DCE3A74
:104830001863DF4A82E51A31609751334562537F2E
:10484000E0B1647784BB6BAE1CFE81A094F9082BA9
:1048500058704868198F45FD8794DE6CB7527BF815
:1048600023AB73D3E2724B0257E31F8F2A6655AB1B
:1048700007B2EB28032FB5C29A86C57BA5D33708AC
:10488000F2302887B223BFA5BA02036A5CED168214
:104890002B8ACF1C92A779B4F0F307F2A14E69E2FC
:1048A000CD65DAF4D50605BE1FD134628AC4A6FEF2
:1048B0009D342E53A0A2F35532058AE175A4F6EB80
:1048C000390B83ECAA4060EF065E719F51BD6E10FC
:1048D000F93E218A3D96DD06AEDD3E05464DE6BD3C
:1048E000B591548D0571C45D6F0406D4FF605015F9
:1048F000241998FB97D6BDE9CC8940437767D99EA8
:10490000BDB0E8428807898B38E7195BDB79C8EED0
:1049100047A17C0AE97C420FC9F8841E0000000010
:104920008309808648322BEDAC1E11704E6C5A7292
:10493000FBFD0EFF560F85381E3DAED527362D39AF
:10494000640A0FD921685CA6D19B5B543A24362EA9
:10495000B10C0A670F9357E7D2B4EE969E1B9B915A
:104960004F80C0C5A261DC20695A774B161C121A11
:104970000AE293BAE5C0A02A433C22E01D121B17AD
:104980000B0E090DADF28BC7B92DB6A8C8141EA920
:104990008557F1194CAF7507BBEE99DDFDA37F601C
:1049A0009FF70126BC5C72F5C544663B345BFB7E19
:1049B000768B4329DCCB23C668B6EDFC63B8E4F103
:1049C000CAD731DC10426385401397222084C61178
:1049D0007D854A24F8D2BB3D11AEF9326DC729A1BD
:1049E0004B1D9E2FF3DCB230EC0D8652D077C1E325
:1049F0006C2BB31699A970B9FA1194482247E9644F
:104A0000C4A8FC8C1AA0F03FD8567D2CEF2233901E
:104A1000C787494EC1D938D1FE8CCAA23698D40B6B
:104A2000CFA6F58128A57ADE26DAB78EA43FADBFE2
:104A3000E42C3A9D0D5078929B6A5FCC62547E467E
:104A4000C2F68D13E890D8B85E2E39F7F582C3AF61
:104A5000BE9F5D807C69D093A96FD52DB3CF251201
:104A60003BC8AC99A710187D6EE89C637BDB3BBB11
:104A700009CD2678F46E591801EC9AB7A8834F9A9D
:104A800065E6956E7EAAFFE60821BCCFE6EF15E845
:104A9000D9BAE79BCE4A6F36D4EA9F09D629B07CB3
:104AA000AF31A4B2312A3F2330C6A594C035A266E7
:104AB00037744EBCA6FC82CAB0E090D01533A7D89C
:104AC0004AF10498F741ECDA0E7FCD502F1791F69A
:104AD0008D764DD64D43EFB054CCAA4DDFE496040D
:104AE000E39ED1B51B4C6A88B8C12C1F7F46655127
:104AF000049D5EEA5D018C3573FA87742EFB0B41D1
:104B00005AB3671D5292DBD233E91056136DD64764
:104B10008C9AD7617A37A10C8E59F81489EB133C23
:104B2000EECEA92735B761C9EDE11CE53C7A47B166
:104B3000599CD2DF3F55F273791814CEBF73C73733
:104B4000EA53F7CD5B5FFDAA14DF3D6F867844DB47
:104B500081CAAFF33EB968C42C3824345FC2A34085
:104B600072161DC30CBCE2258B283C4941FF0D95F4
:104B70007139A801DE080CB39CD8B4E4906456C126
:104B8000617BCB8470D532B674486C5C42D0B85728
:104B9000A75051F465537E41A4C31A175E963A2775
:104BA0006BCB3BAB45F11F9D58ABACFA03934BE38A
:104BB000FA5520306DF6AD76769188CC4C25F5020D
:104BC000D7FC4FE5CBD7C52A44802635A38FB562E5
:104BD0005A49DEB11B6725BA0E9845EAC0E15DFE71
:104BE0007502C32FF012814C97A38D46F9C66BD383
:104BF0005FE7038F9C9515927AEBBF6D59DA95525A
:104C0000832DD4BE21D35874692949E0C8448EC984
:104C1000896A75C27978F48E3E6B995871DD27B92F
:104C20004FB6BEE1AD17F088AC66C9203AB47DCE70
:104C30004A1863DF3182E51A336097517F4562532A
:104C400077E0B164AE84BB6BA01CFE812B94F908A5
:104C500068587048FD198F456C8794DEF8B7527B11
:104C6000D323AB7302E2724B8F57E31FAB2A665517
:104C70002807B2EBC2032FB57B9A86C508A5D337A8
:104C800087F23028A5B223BF6ABA0203825CED1610
:104C90001C2B8ACFB492A779F2F0F307E2A14E69F8
:104CA000F4CD65DABED50605621FD134FE8AC4A6EE
:104CB000539D342E55A0A2F3E132058AEB75A4F67C
:104CC000EC390B83EFAA40609F065E711051BD6EF8
:104CD0008AF93E21063D96DD05AEDD3EBD464DE638
:104CE0008DB591545D0571C4D46F040615FF6050F5
:104CF000FB241998E997D6BD43CC89409E7767D9A4
:104D000042BDB0E88B8807895B38E719EEDB79C8CC
:104D10000A47A17C0FE97C421EC9F884000000000C
:104D200086830980ED48322B70AC1E11724E6C5A8E
:104D3000FFFBFD0E38560F85D51E3DAE3927362DAB
:104D4000D9640A0FA621685C54D19B5B2E3A2436A5
:104D500067B10C0AE70F935796D2B4EE919E1B9B56
:104D6000C54F80C020A261DC4B695A771A161C120D
:104D7000BA0AE2932AE5C0A0E0433C22171D121BA9
:104D80000D0B0E09C7ADF28BA8B92DB6A9C8141E1C
:104D9000198557F1074CAF75DDBBEE9960FDA37F18
:104DA000269FF701F5BC5C723BC544667E345BFB15
:104DB00029768B43C6DCCB23FC68B6EDF163B8E4FF
:104DC000DCCAD7318510426322401397112084C674
:104DD000247D854A3DF8D2BB3211AEF9A16DC729B9
:104DE0002F4B1D9E30F3DCB252EC0D86E3D077C121
:104DF000166C2BB3B999A97048FA1194642247E94B
:104E00008CC4A8FC3F1AA0F02CD8567D90EF22331A
:104E10004EC78749D1C1D938A2FE8CCA0B3698D467
:104E200081CFA6F5DE28A57A8E26DAB7BFA43FADDE
:104E30009DE42C3A920D5078CC9B6A5F4662547E7A
:104E400013C2F68DB8E890D8F75E2E39AFF582C35D
:104E500080BE9F5D937C69D02DA96FD512B3CF25FD
:104E6000993BC8AC7DA71018636EE89CBB7BDB3B0D
:104E70007809CD2618F46E59B701EC9A9AA8834F99
:104E80006E65E695E67EAAFFCF0821BCE8E6EF1541
:104E90009BD9BAE736CE4A6F09D4EA9F7CD629B0AF
:104EA000B2AF31A423312A3F9430C6A566C035A2E3
:104EB000BC37744ECAA6FC82D0B0E090D81533A798
:104EC000984AF104DAF741EC500E7FCDF62F179196
:104ED000D68D764DB04D43EF4D54CCAA04DFE49609
:104EE000B5E39ED1881B4C6A1FB8C12C517F466523
:104EF000EA049D5E355D018C7473FA87412EFB0BCD
:104F00001D5AB367D25292DB5633E91047136DD660
:104F1000618C9AD70C7A37A1148E59F83C89EB131F
:104F200027EECEA9C935B761E5EDE11CB13C7A4762
:104F3000DF599CD2733F55F2CE79181437BF73C72F
:104F4000CDEA53F7AA5B5FFD6F14DF3DDB86784443
:104F5000F381CAAFC43EB968342C3824405FC2A381
:104F6000C372161D250CBCE2498B283C9541FF0DF0
:104F7000017139A8B3DE080CE49CD8B4C190645622
:104F800084617BCBB670D5325C74486C5742D0B824
:104F9000F4A750514165537E17A4C31A275E963A71
:104FA000AB6BCB3B9D45F11FFA58ABACE303934B86
:104FB00030FA5520766DF6ADCC769188024C25F509
:104FC000E5D7FC4F2ACBD7C53544802662A38FB5E1
:104FD000B15A49DEBA1B6725EA0E9845FEC0E15D6D
:104FE0002F7502C34CF012814697A38DD3F9C66B7F
:104FF0008F5FE703929C95156D7AEBBF5259DA9556
:10500000BE832DD47421D358E0692949C9C8448E80
:10501000C2896A758E7978F4583E6B99B971DD272B
:10502000E14FB6BE88AD17F020AC66C9CE3AB47D6C
:10503000DF4A18631A3182E551336097537F456226
:105040006477E0B16BAE84BB81A01CFE082B94F9A1
:105050004868587045FD198FDE6C87947BF8B7520D
:1050600073D323AB4B02E2721F8F57E355AB2A6613
:10507000EB2807B2B5C2032FC57B9A863708A5D3A4
:105080002887F230BFA5B223036ABA0216825CED0C
:10509000CF1C2B8A79B492A707F2F0F369E2A14EF4
:1050A000DAF4CD6505BED50634621FD1A6FE8AC4EA
:1050B0002E539D34F355A0A28AE13205F6EB75A478
:1050C00083EC390B60EFAA40719F065E6E1051BDF4
:1050D000218AF93EDD063D963E05AEDDE6BD464D34
:1050E000548DB591C45D057106D46F045015FF60F1
:1050F00098FB2419BDE997D64043CC89D99E7767A0
:10510000E842BDB0898B8807195B38E7C8EEDB79C8
:105110007C0A47A1420FE97C841EC9F80000000008
:10512000808683092BED48321170AC1E5A724E6C8A
:105130000EFFFBFD8538560FAED51E3D2D392736A7
:105140000FD9640A5CA621685B54D19B362E3A24A1
:105150000A67B10C57E70F93EE96D2B49B919E1B52
:10516000C0C54F80DC20A261774B695A121A161C09
:1051700093BA0AE2A02AE5C022E0433C1B171D12A5
:10518000090D0B0E8BC7ADF2B6A8B92D1EA9C81418
:10519000F119855775074CAF99DDBBEE7F60FDA314
:1051A00001269FF772F5BC5C663BC544FB7E345B11
:1051B0004329768B23C6DCCBEDFC68B6E4F163B8FB
:1051C00031DCCAD76385104297224013C611208470
:1051D0004A247D85BB3DF8D2F93211AE29A16DC7B5
:1051E0009E2F4B1DB230F3DC8652EC0DC1E3D0771D
:1051F000B3166C2B70B999A99448FA11E964224747
:10520000FC8CC4A8F03F1AA07D2CD8563390EF2216
:10521000494EC78738D1C1D9CAA2FE8CD40B369863
:10522000F581CFA67ADE28A5B78E26DAADBFA43FDA
:105230003A9DE42C78920D505FCC9B6A7E46625476
:105240008D13C2F6D8B8E89039F75E2EC3AFF58259
:105250005D80BE9FD0937C69D52DA96F2512B3CFF9
:10526000AC993BC8187DA7109C636EE83BBB7BDB09
:10527000267809CD5918F46E9AB701EC4F9AA88395
:10528000956E65E6FFE67EAABCCF082115E8E6EF3D
:10529000E79BD9BA6F36CE4A9F09D4EAB07CD629AB
:1052A000A4B2AF313F23312AA59430C6A266C035DF
:1052B0004EBC377482CAA6FC90D0B0E0A7D8153394
:1052C00004984AF1ECDAF741CD500E7F91F62F1792
:1052D0004DD68D76EFB04D43AA4D54CC9604DFE405
:1052E000D1B5E39E6A881B4C2C1FB8C165517F461F
:1052F0005EEA049D8C355D01877473FA0B412EFBC9
:10530000671D5AB3DBD25292105633E9D647136D5C
:10531000D7618C9AA10C7A37F8148E59133C89EB1B
:10532000A927EECE61C935B71CE5EDE147B13C7A5E
:10533000D2DF599CF2733F5514CE7918C737BF732B
:10534000F7CDEA53FDAA5B5F3D6F14DF44DB86783F
:10535000AFF381CA68C43EB924342C38A3405FC27D
:105360001DC37216E2250CBC3C498B280D9541FFEC
:10537000A80171390CB3DE08B4E49CD856C190641E
:10538000CB84617B32B670D56C5C7448B85742D020
:1053900001000000020000000400000008000000FE
:1053A000100000002000000040000000800000000D
:1053B0001B00000036000000D85300080000002049
:1053C00084000000040500085C54000884000020EC
:1053D000CC48000014050008000000000000000098
:1053E000000E270700000000000000000000000081
:1053F00000000000000000000000000000000000AD
:1054000000000000AAAAAAAA0000000000000000F4
:10541000000000000000000000000000000000008C
:10542000000000000000000000000000000000007C
:10543000000000000000000000000000000000006C
:10544000000000000000000000000000000000005C
:0C54500000000000000000000000000050
:0400000508000131BD
:00000001FF
