:020000040800F2
:10000000584B0020050200089B07000893070008D2
:10001000970700088D070008E109000800000000AC
:100020000000000000000000000000004501000882
:100030009107000800000000A10100089D070008CA
:100040001F0200081F0200081F0200081F0200080C
:100050001F0200081F0200081F0200081F020008FC
:100060001F0200081F0200081F0200081F020008EC
:100070001F0200081F0200081F0200081F020008DC
:100080001F0200081F0200081F0200081F020008CC
:100090001F0200081F0200081F0200081F020008BC
:1000A0001F0200081F0200081F0200081F020008AC
:1000B0001F0200081F0200081F0200081F0200089C
:1000C0001F0200081F0200081F0200081F0200088C
:1000D0001F0200081F020008890900081F0200080B
:1000E0001F0200081F0200081F0200081F0200086C
:1000F0001F0200081F0200081F0200081F0200085C
:100100001F0200081F0200081F0200081F0200084B
:100110001F0200081F0200084D0900081F02000806
:100120001F0200081F0200081F0200081F0200082B
:10013000DFF80CD000F08AFA004800478516000866
:10014000584B00202C4B19680868B0E8F04F80F33A
:100150000988BFF36F8F4FF0000080F3118870475C
:100160000000000008480068006880F308884FF02D
:10017000000080F3148862B661B6BFF34F8FBFF3FF
:100180006F8F00DF00BF00BF08ED00E0DFF80C005C
:10019000016841F470010160704700BF88ED00E024
:1001A000EFF30980BFF36F8F134B1A681EF0100F27
:1001B00008BF20ED108A20E9F04F106009B44FF01D
:1001C000500080F31188BFF34F8FBFF36F8F02F0A1
:1001D000C5FD4FF0000080F3118809BC196808685C
:1001E000B0E8F04F1EF0100F08BFB0EC108A80F39B
:1001F0000988BFF36F8F70474C000020EFF3058034
:10020000704700000648804706480047FEE7FEE7C3
:10021000FEE7FEE7FEE7FEE7FEE7FEE7FEE7FEE7B6
:100220008908000831010008D2B201E000F8012B72
:10023000491EFBD270470022F6E710B513460A4666
:1002400004461946FFF7F0FF204610BD30B50B46B7
:10025000014600202022012409E021FA02F59D42F6
:1002600005D303FA02F5491B04FA02F52844151ECA
:10027000A2F10102F1DC30BD2DE9F05F054600205E
:1002800092469B4688460646814640241BE0284607
:1002900041464746224600F0FAF953465A46C01AEC
:1002A000914110D311461846224600F0E1F92D1A6B
:1002B00067EB01084F4622460120002100F0D8F9E3
:1002C00017EB00094E41201EA4F10104DFDC484673
:1002D00031462A464346BDE8F09F2DE9FE4F804651
:1002E00081EA0300C00F0C46009021F0004123F08A
:1002F0000045B8EB0200A94105D240462146904690
:100300001C460B46024623F00040104347D0270D01
:10031000C7F30A00C3F30A510290401A0190402823
:100320006BDAC3F3130040F4801B0098924620B1AF
:100330000023D2EB030A63EB0B0B01985946C0F183
:100340004002504600F094F906460D465046594684
:10035000019A00F0ACF910EB08006141002487EA33
:10036000115284EAE7731A4340D0009A62B3019AAB
:10037000012A4FEA075215DC001B61EB02014FF026
:10038000004202EA0752CDE90042001C41F580110B
:1003900032462B4600F0ACF903B0BDE8F08F404682
:1003A0002146F9E7001B61EB0201001C41F58013B7
:1003B00000185B412018A2F5001747EB030140EA43
:1003C000D570B6196D4111E06D084FEA360645EA61
:1003D000C0754FEA0752001B61EB0201001C41F59A
:1003E000801149084FEA30000019514132462B462E
:1003F00003B0BDE8F04F00F06CB900980122400056
:100400000023D0EB020263EBE073009821464FEA31
:10041000E074B8EB000061EB0401E9E783F000430E
:100420005BE781F0004158E72DE9FE4F81EA0304C4
:1004300004F0004421F0004100944FF0000B23F041
:10044000004350EA01045ED052EA03045BD0C3F3D8
:100450000A54C1F30A552C44A4F2F3340194A0FBCE
:100460000254C1F3130141F48011C3F3130343F4A5
:10047000801301FB024400FB034E840A970A44EAFE
:10048000815447EA8357A4FB076802958D0A05FB50
:1004900007854FEA932C04FB0C542705029D4FEA75
:1004A000065847EA1637B5EB08056EEB070C870EC2
:1004B000920E47EA811742EA8312A7FB0201B6EBCC
:1004C0000B0164EB00042B0D43EA0C335E1844EB84
:1004D0001C50DA465146E7FB0201C5F313044FEA0C
:1004E0000B3343EA14534FEA0432019C43EA0603F8
:1004F000A4F10C040294009CCDE900B400F0F8F8DB
:1005000003B0BDE8F08F00200146F9E72DE9F04D7A
:1005100081EA030404F0004B21F0004514464FF03B
:10052000000A23F0004150EA050220D054EA0102FB
:100530001DD0C5F30A570246C5F31303C1F31300D8
:10054000C1F30A5640F4801543F48013A7EB060864
:10055000101BD64608F2FD3873EB050002D308F1F4
:10056000010801E092185B41B8F1000F03DA0020A6
:100570000146BDE8F08D00204FF480110646844608
:100580000EE0171B73EB050705D3121B63EB050386
:1005900006434CEA010C49084FEA300092185B41CF
:1005A00050EA0107EDD152EA030012D082EA0400BA
:1005B00083EA0501084305D0101BAB4106D2012296
:1005C000002306E000224FF0004302E06FF001023A
:1005D00053101AEB06004CEB085110EB0A0041EBEC
:1005E0000B01BDE8F04D00F074B8C1F30A52C1F33D
:1005F000130140F2FF3341F480119A4202DA0020E5
:100600000146704740F233439A42A2F2334202DC81
:10061000524200F03CB800F02BB8000030B5041E88
:1006200071F1000404DB4FF00044404264EB01012F
:10063000141E73F1000405DB1C464FF000435242C8
:1006400063EB0403994208BF904230BD064C074D4E
:1006500006E0E06840F0010394E807009847103492
:10066000AC42F6D3FFF768FDC8330008E833000852
:10067000202A04DB203A00FA02F100207047914062
:10068000C2F1200320FA03F3194390407047202A57
:1006900004DB203A21FA02F00021704721FA02F32C
:1006A000D040C2F120029140084319467047202AE9
:1006B00006DBCB17203A41FA02F043EAE07306E08A
:1006C00041FA02F3D040C2F120029140084319469A
:1006D000704710B5141E73F1000408DA401C41F194
:1006E000000192185B411A4301D120F0010010BDB6
:1006F0002DE9F04D92469B4611B1B1FA81F202E02C
:10070000B0FA80F220329046FFF7B2FF04460F465F
:1007100040EA0A0041EA0B0153465A46084313D007
:10072000114653EA010019D0C8F140025046FFF7C4
:10073000AEFF05460E46504659464246FFF798FF23
:10074000084305D0012004E020463946BDE8F08D7D
:100750000020054346EAE0762C4337430A986305B8
:10076000E40AA0EB08000022FD0A44EA47540A30DC
:1007700002D500200146E9E7010510196941DDE9CC
:10078000084500196941BDE8F04DA2E700BFFEE74A
:10079000704700BFFEE700BFFEE7704710B500BF1F
:1007A000502080F31188BFF34F8FBFF36F8F00BFCE
:1007B00002F094FC18B14FF080500449086000BF6B
:1007C000002080F3118800BF10BD000004ED00E0A0
:1007D000F0B5284E7668C6F3810525B1012D06D007
:1007E000022D40D107E0244E244F3E603FE0224ED0
:1007F000224F3E603BE01F4E766806F48032B2F531
:10080000803F10D11B4EF66A06F080430BB91A499F
:1008100000E01B49174E766806F40034B4F5003F3B
:1008200002D1184900E01749124E7668C6F383409A
:10083000104E766806F000660EB140F010000D4EC6
:10084000766806F080460EB140F020000F2801D3F4
:10085000401C00E0801C3D2800D93F2001FB00F631
:10086000064F3E6003E0044E044F3E6000BF00BFF1
:10087000F0BD00000010024000127A0010000020BD
:10088000006CDC0200093D0008B51848006840F41F
:100890007000164908601648006840F001001449CD
:1008A00008600846406840F08000486000200090E2
:1008B00002E00098401C009044F6206100988842B5
:1008C000F7D300200A494860C86208460068094911
:1008D0000840074908604FF41F0088600846006818
:1008E00020F48020086001F0FFFB08BD88ED00E0E7
:1008F00000100240FFFFF6FE1FB540F2047001F049
:1009000039FB114801F00CFD42F6DF60ADF8000044
:10091000C82002900020ADF80600ADF80200ADF846
:1009200004008DF80C006946074801F071FD0422AF
:100930000021362000F0C8FE0121034801F0B4FD7B
:10094000014801F05BFD1FBD0010004010B5012102
:10095000094801F0B0FD30B10120084908700121BB
:10096000054801F0A5FD06480168064801F018FE9B
:10097000014801F043FD10BD001000400C000020B4
:10098000080000208C01002010B51049104801F02B
:10099000E7FEC8B10D490E4801F0D5FE0D480068CC
:1009A00010B90D4801F02FFD094801F059FEC1B200
:1009B000084802680068401C064B186007488154CC
:1009C0000021054801F0AAFC10BD00000503050048
:1009D0000044004008000020001000408C0100206E
:1009E00000BFFEE70FB4054B10B503A9044A0298F7
:1009F00000F0DAF810BC5DF814FB0000AD1300083D
:100A00008800002002E008C8121F08C1002AFAD19D
:100A100070477047002001E001C1121F002AFBD17E
:100A2000704700002DE9FF5F82B00021DDE904304E
:100A3000020DDDF840B0034318D044F61050A2F286
:100A4000FF3242431514119801281FD0A5EB0B006B
:100A5000401C5FEA000A4FF000064E4FDFF8389165
:100A6000B046504615D5CAF1000413E01198012490
:100A70004AA3012801D16FEA0B010298119AC0E93B
:100A80000031C0E9024206B0BDE8F09FCBF10000A2
:100A9000DFE704460021404A491842EB0450CDE903
:100AA000001012E0E00707D032463B464046494678
:100AB000FFF7BAFC8046894632463B461046194647
:100AC000FFF7B2FC06460F466410002CEAD1DDE9C0
:100AD0000401DDE90023BAF1000F06DAFFF7A4FCF8
:100AE00042464B46FFF7A0FC05E0FFF70FFD4246EC
:100AF0004B46FFF70BFD04460E460022284BFFF73E
:100B00008DFD03D84FF0FF30014607E00022254B52
:100B100020463146FFF7E1FBFFF767FD102409E0AF
:100B2000002C0ADB0A220023FFF7A6FB039B3032CE
:100B30001A55641E50EA0102F2D1641C039AC4F1F2
:100B400011031444119A012A03D0012208430DD144
:100B50000AE0084304D000204FF0110B119072E717
:100B6000A3EB0B056D1E0DE05B4504DD4FF00002AD
:100B700005F1010504E003DA4FF00002A5F10105DB
:100B8000002AECD002981199C0E90231C0E9004571
:100B900079E70000000014400000F03F3000000042
:100BA0000000F0430000E03F2DE9FF4F95B09B4669
:100BB0008946064600250FE2252877D100242746DE
:100BC000F84A0121059400E0044316F8013F203B58
:100BD00001FA03F01042F7D130782A2811D06FF0D3
:100BE0002F033078A0F13002092A16D8059A44F074
:100BF000020402EB820203EB42021044761C0590D1
:100C0000EFE759F8042B0592002A03DA504244F426
:100C10000054059044F00204761C30782E2816D13A
:100C200016F8010F44F004042A280DD06FF02F02AB
:100C30003078A0F13003092B09D807EB870302EBCA
:100C40004303C718761CF3E759F8047B761C307809
:100C50006C280FD006DC4C2817D068280DD06A28E5
:100C600014D104E0742810D07A280FD10DE044F498
:100C700000140AE044F4801401E044F44014727853
:100C8000824202D104F58014761C761C30786628E6
:100C90000BD013DC582877D009DC002875D0452804
:100CA000F6D04628F4D047281AD19DE118E06328F1
:100CB00035D0642879D0652812D195E1702873D099
:100CC00008DC6728F1D069286FD06E280DD06F2816
:100CD00006D1B5E073282CD0752875D0782874D04B
:100CE0005A46179990476D1C75E1C4F302500228CB
:100CF00009D003280DD0D9F8001004280DD00D60BC
:100D000009F1040967E1D9F80010EA17C1E90052B6
:100D1000F6E7D9F800100D80F2E70D70F0E719F84A
:100D2000041B8DF8001000208DF80100EA46012018
:100D300003E059F804AB4FF0FF3061074FF00001BA
:100D400002D40DE008F101018846B9420FDA80456E
:100D5000F8DB1AF808100029F4D108E008F10101C5
:100D600088468142FADB1AF808100029F6D1059866
:100D70005B46A0EB080721463846179A00F094FA24
:100D8000284400EB080507E04DE029E10DE01AF8E2
:100D9000010B5A4617999047B8F10108F7D25B4604
:100DA00021463846179A13E142E00A220092C4F322
:100DB00002524FF0000A022A08D059F804CB032A45
:100DC0004FEAEC710AD00DE029E02AE009F10701B1
:100DD00021F00702F2E802C1914609E00FFA8CFC0B
:100DE0004FEAEC71042A03D14FFA8CFC4FEAEC7104
:100DF000002907DA0A460021DCF1000C61EB020150
:100E00002D2202E0220504D52B228DF80420012298
:100E100003E0E20701D02022F7E7904659E00A21DB
:100E200002E010220DE010214FF0000A00910BE0CB
:100E300010224FF0000A44F004040827009203E057
:100E400008224FF0000A0092C4F30252022A05D091
:100E500059F804CB0021032A08D009E009F1070161
:100E600021F00702F2E802C1914605E01FFA8CFC6E
:100E7000042A01D10CF0FF0C4FF00008220728D5FE
:100E8000702806D0009B83F0100353EA0A0305D0B4
:100E90000EE040228DF80420012208E05CEA010205
:100EA00006D030228DF804208DF8050002229046ED
:100EB000009B83F0080353EA0A030AD15CEA0102AB
:100EC00001D1620705D530228DF804204FF00108CA
:100ED0007F1E582804D034A003900EA802900DE085
:100EE00036A0F9E753466046009AFFF7C5F98446F5
:100EF0000398825C0298401E029002705CEA010036
:100F0000F0D1029806A9081A00F1200A600702D55C
:100F100024F4803400E00127574502DDA7EB0A00E6
:100F200000E0002000EB0A01009005984144401ABF
:100F30000590E00306D45B462146179A059800F019
:100F4000B3F90544002706E001A85A46C05D179989
:100F500090476D1C7F1C4745F6DBE0030CD55B46D4
:100F60002146179A059800F09FF9054404E03020C7
:100F70005A46179990476D1C0099481E0090002909
:100F8000F5DC08E0029802995A460078491C029163
:100F9000179990476D1CBAF10001AAF1010AF1DC22
:100FA00065E100000928010030313233343536372D
:100FB00038396162636465660000000030313233A5
:100FC0003435363738394142434445460000000045
:100FD00000F058F90544761C307800287FF4ECAD19
:100FE00019B02846BDE8F08F620700D4062709F142
:100FF000070222F0070CFCE80223E14603F0004858
:101000005FEA080C02D00FF2702C0DE05FEA045C7E
:1010100002D50FF2682C07E05FEAC47C02D00FF221
:10102000602C01E0AFF2700C4FF0FF3823F000436A
:10103000CDF850C065280CD006DC452809D04628DC
:101040001DD047283DD13DE0662818D067287ED1C5
:1010500038E00021112F01DB112000E0781CCDE9E0
:10106000000106A90EA8FFF7DDFCDDE90F010E9ACD
:1010700003910021009207F1010A04914DE04FF025
:1010800000400097CDE9011006A90EA8FFF7CAFCA1
:10109000DDE90F0203920E9B11990022DDF80CA0EE
:1010A0000093049211B9791C00EB010AB7EB0A0016
:1010B00004D4C0F1FF3007F1010A0490AAEB070045
:1010C000019044E0012F00DA01270021112F01DDFA
:1010D000112000E03846CDE9000106A90EA8FFF76F
:1010E000A1FCDDE90F010E9A039100210491009209
:1010F000BA4621070CD40399514500DA8A46BAF161
:10110000010F05DD009AAAF10101515C302908D0D8
:10111000B84202DA10F1040F06DA0121CDE901101C
:1011200015E0AAF10101E9E7002805DC0499014472
:101130000491AAEB000102E0411C514500DD8A4602
:101140000499401A401C01904FF000400290200783
:1011500004D40198504501DBCDF8048000208DF8BF
:101160004F0002980DF14F07B0F1004F25D02B2012
:101170000E9002984FF0020800280CDA40420290CC
:101180002D200E9007E00A210298FFF75FF830311A
:10119000029007F8011DB8F10001A8F10108F2DC86
:1011A00002980028EFD1791E0E980870307800F070
:1011B000200040F0450007F8020D12A8C01B00F106
:1011C00007081498007800B1012000EB0A0101988B
:1011D00001EBE07105984144401A401E0590E00380
:1011E00006D45B462146179A059800F05DF8054441
:1011F0001498007818B15A46179990476D1CE0036F
:1012000024D55B462146179A059800F04DF8054411
:101210001CE00498002807DBDDE90301884203DDB8
:101220000098405C179901E0179930205A46904782
:10123000049805F10105401C04900198401E01909E
:1012400004D12E205A46179990476D1CBAF100011F
:10125000AAF1010ADDDC05E017F8010B5A461799DF
:1012600090476D1CB8F10001A8F10108F4DC5B4661
:101270002146179A0598ABE62D0000002B000000D0
:10128000200000002DE9F041044600251E461746C7
:10129000880404D405E039462020B0476D1C641E44
:1012A000F9D52846BDE8F0812DE9F0410446002536
:1012B0001E469046C80301D5302700E02027880449
:1012C00004D505E041463846B0476D1C641EF9D58B
:1012D0002846BDE8F08100001CB50C480121002320
:1012E0004022CDE900100AA10B4801F031FE0B4865
:1012F000012100234022CDE9001009A10A4801F094
:1013000027FE002001F044FC00BFFEE700000020A3
:101310004C45445461736B0009220008040000200E
:101320004B45595461736B000121000870B50346A9
:101330004FF0E0267469C3EB0316F5004FF0E0268A
:10134000B169002210E04FF0E026B069884208D071
:10135000884203D9261A0E44324401E00E1A324460
:101360000146AA4200D300E0EDE700BF70BD0000D7
:1013700001210120094A12680AB100200CE0084A44
:1013800012680AB1002007E0064A1368064A12688C
:10139000521E934200D102207047000018470020DF
:1013A00070000020404700205C00002070B504461B
:1013B0000D46E1B2054801F058F900BF0721034886
:1013C00001F0A5F90028F9D0204670BD0038014091
:1013D000416170470AB1016100E04161704700005E
:1013E00010B54FF4C06000F0C5FD40F2026000F09F
:1013F000C1FD40F2036000F0BDFD0121094800F08D
:10140000E7F8012303222821074800F073F804239A
:1014100003221021054800F06DF804210348FFF76E
:10142000D7FF10BD0002300000080140000C014051
:1014300010B504462D49601A8C422FD009DC2C4887
:10144000204480B1B0F5806F16D0B0F5006F49D15F
:101450001BE0B0F5806F2AD0B0F5006F30D0B0F54A
:10146000406F3FD135E040F2023000F0A3FD40F282
:10147000023000F08FFD36E040F2033000F09AFDBC
:1014800040F2033000F086FD2DE04FF4417000F093
:1014900091FD4FF4417000F07DFD24E040F20530F5
:1014A00000F088FD40F2053000F074FD1BE040F2D2
:1014B000063000F07FFD40F2063000F06BFD12E0D8
:1014C00040F2073000F076FD40F2073000F062FD98
:1014D00009E04FF4427000F06DFD4FF4427000F0EF
:1014E00059FD00E000BF00BF10BD00000014014026
:1014F00000F8FEBFF0B5044616460025002201F0B4
:101500000F0501F0100747B1042E05D145F0030582
:10151000E76B1F43E76300E0354300201EE001272F
:1015200087401F40C7B122684FEA800C0F2707FA97
:101530000CF7BA43870005FA07F73A43282904D184
:10154000012787401F40676105E0482903D1012733
:1015500087401F4027612260471CB8B20828DED3AD
:10156000082022E0012787401F40E7B16268A0F110
:1015700008074FEA870C0F2707FA0CF7BA43A0F1C8
:101580000807BF0005FA07F73A43282904D10127C5
:1015900087401F40676105E0482903D10127874044
:1015A0001F4027616260471CB8B21028DAD3F0BD33
:1015B00002469068084008B1012070470020FCE70F
:1015C0000246D068084008B1012070470020FCE7BF
:1015D000F0B50A46002300240021002500F0004653
:1015E000B6F1004F02D11D4EF16901E01B4E71684A
:1015F000C0F3034583B200F44016B6F5401F08D18E
:1016000021F0E061154E766826F0E066134F7E60AB
:1016100012E000F48016B6F5801F06D1032606FA04
:1016200005F4A14341F0E06106E0460D360103FAFE
:1016300006F6B14341F0E06122B1460D360103FAEE
:1016400006F6314300F00046B6F1004F02D1034EDA
:10165000F16101E0014E7160F0BD00000000014049
:1016600070B50446206806490840B0F1005F06D115
:1016700065682E46206880F3088800BFB04770BDBB
:101680000000FE2F1CB5FFF7A3F8FFF7A9FE00F03E
:101690001FFF00F04DFFFFF72FF900200121034647
:1016A0004022CDE9001004A1064801F051FC01F0F0
:1016B000E9FA00201CBD00006170705F6D61696E09
:1016C00000000000D91200082DE9F04103460D4644
:1016D000164600240027A0462A48006800F4E0606F
:1016E000B0F5E06F03D100BF4FF0040830E02548AB
:1016F000006800F4E060B0F5C06F03D101274FF03F
:10170000030825E01F48006800F4E060B0F5A06F12
:1017100002D10227B8461BE01A48006800F4E060D6
:10172000B0F5806F03D103274FF0010810E0154892
:10173000006800F4E060B0F5407F03D104274FF06B
:10174000000805E04FF4A06000F020F80227B8463A
:10175000C7F1040005FA00F4C8F104010F20C840E5
:101760003040044324010848C45403F01F01012001
:1017700088405911890001F1E021C1F80001BDE85C
:10178000F08100000CED00E000E400E002490143BC
:10179000024A1160704700000000FA050CED00E0FD
:1017A0002DE9F04105460E461F48076800201F49F5
:1017B000096881F855001D480068001D00F0FCFF15
:1017C00050B91A48006890F82C1001208840184938
:1017D0000968814316480160681C38B936B113485E
:1017E0000168091D134801F025F81AE07C190F481B
:1017F00000684460BC4207D20C480168091D0E48CD
:10180000006800F0FDFF0CE008480168091D0B4866
:10181000006800F0F5FF0A480068844201D20848D9
:101820000460BDE8F0810000600000204C00002052
:101830006400002040470020540000205000002099
:101840007C00002010B5044601F000F82448006830
:10185000401C234908602348006840B921480460BF
:101860000846006801280DD100F07AF90AE01E4808
:10187000006838B91B480068C06AE16A884201D82C
:101880001848046019480068401C18490860084658
:101890000068206494F82C100120884014490968DD
:1018A000084313490860E16A01EB8101114A02EB28
:1018B0008100211D00F0BEFF00F0F2FF0A48006821
:1018C00068B108480068C06AE16A884207D24FF0F0
:1018D000805009490860BFF34F8FBFF36F8F10BD71
:1018E0005C0000204C0000206800002078000020F0
:1018F000640000208C46002004ED00E010B516E0E6
:1019000000F0A4FF0C48C068C468201D00F054FF1C
:101910000A480068401E0949086009480068401EDE
:101920000749086000F0BCFF204600F00BF80448AF
:1019300000680028E4D110BD2C4700205C00002086
:101940005800002010B50446206B00F0C7FF204669
:1019500000F0C4FF10BD0000002101220C4B1B68E9
:10196000012B00D901210B4A1268D26A0AB100206A
:101970000DE0094A1268012A01D9002007E009B1E7
:10198000002004E0054A1268054B1B68D01A704716
:10199000640000204C0000208C4600207C000020C9
:1019A0006000002030B54FF48843174800F007046A
:1019B0002CB1C01D20F00700134C041B1B1B02465A
:1019C000124C22600024114D6C60D018083820F0B1
:1019D00007000F4C206000240D4D2D686C600C4DED
:1019E0002D682C601146441A4C60094C24680C6028
:1019F000084D4C682C60084D4C682C604FF000443A
:101A0000064D2C6030BD00008C0200201400002028
:101A10001C000020240000202000002030000020B6
:101A200000BFFFF76BFF19480068012807D94FF086
:101A3000805017490860BFF34F8FBFF36F8FFFF7D8
:101A40008BFF0446022C20D301F080F91148006876
:101A500011490968884201D3012000E0002050B9F3
:101A600000BF502080F31188BFF34F8FBFF36F8FFB
:101A700000BF00BFFEE7FFF76FFF0446022C02D352
:101A8000204600F0B1FF01F01DFCCAE78C460020A3
:101A900004ED00E07C000020600000202DE9F05FF4
:101AA00082460E4690469B460A9F0C9C4FEA880150
:101AB000A522206BFEF7B8FBA8F10100216B01EB1A
:101AC000800929F0070909F0070008B9012000E0A2
:101AD000002050B900BF502080F31188BFF34F8F12
:101AE000BFF36F8F00BF00BFFEE786B1002507E0A0
:101AF000715D04F134004155705D00B902E06D1C68
:101B00000A2DF5D300BF00213D20015502E0002041
:101B100084F83400052F00D30427E762A76400206F
:101B2000E064201D00F069FE04F1180000F065FE7D
:101B30002461C7F10500A06164620020206584F87B
:101B4000540084F855005A465146484600F050F972
:101B500020600B9808B10B980460BDE8F09F00006E
:101B600010B5002407E004EB84010F4A02EB81006A
:101B700000F036FE641C052CF5D30C4800F030FE56
:101B80000B4800F02DFE0B4800F02AFE0A4800F03A
:101B900027FE0A4800F024FE04480949086004486A
:101BA0000849086010BD00008C460020F046002067
:101BB00004470020184700202C4700204047002001
:101BC000500000205400002010B50146164800E0E7
:101BD000006803688B42FBD30246436813448B4280
:101BE00004D143684C682344436001460A464B686D
:101BF00013440468A34211D10C4C03682468A34227
:101C000008D04B680468646823444B6003681B6811
:101C10000B6005E0054B1B680B6001E003680B607F
:101C2000884200D0016010BD140000201C0000207C
:101C30000A490968096809B9012100E0002121B1B8
:101C40004FF0FF31064A116006E004490968C9688F
:101C5000C868034A416811607047000050000020C6
:101C60007C0000200E480068401C08B9012000E0FC
:101C7000002050B900BF502080F31188BFF34F8F70
:101C8000BFF36F8F00BF00BFFEE700BF502080F39F
:101C90001188BFF34F8FBFF36F8F00BF00BFFEE708
:101CA000340000202DE9F04104464FF0000801F017
:101CB0004DF84948006808B9FFF774FE47480068C6
:101CC0002040002870D1D4B1083404F00700B0B12E
:101CD00004F00700C0F10800044404F0070008B94C
:101CE000012000E0002050B900BF502080F311888F
:101CF000BFF34F8FBFF36F8F00BF00BFFEE7002C15
:101D000052D03748006884424ED8364E3046056877
:101D100001E02E462D686868A04202D2286800289B
:101D2000F7D12D48006885423ED0306800F10808A0
:101D3000286830606868001B102819D92F1907F02F
:101D4000070008B9012000E0002050B900BF502072
:101D500080F31188BFF34F8FBFF36F8F00BF00BFB9
:101D6000FEE76868001B78606C603846FFF72CFF60
:101D70001B4968680968081A19490860084600681C
:101D800019490968884203D2154800681649086055
:101D90001249686809680843686000202860134891
:101DA0000068401C1149086001F08CFA08F0070037
:101DB00008B9012000E0002050B900BF502080F396
:101DC0001188BFF34F8FBFF36F8F00BF00BFFEE7D7
:101DD0004046BDE8F08100001C00002030000020DB
:101DE00020000020140000202400002028000020F3
:101DF000001F4FF080730360001F21F00103036098
:101E0000001F054B036014380260001F6FF00203CF
:101E10000360203870470000651C00082DE9F04F72
:101E20008CB0074600200A904AA090E8004CC06899
:101E3000CDE905BECDF810A007900FF21C1ADAE923
:101E4000000ACDE9020A0FF2101ADAE9000ACDE918
:101E5000000A44484068C0F381000B900B9820B101
:101E6000012804D002283FD103E03F4A3EE03E4A29
:101E70003CE03C48406800F4803CBCF5803F12D117
:101E80003848C06A00F08048B8F1000F01D1364CE4
:101E900000E0364C3348406800F40039B9F5003FA3
:101EA00002D1334C00E0324C2E484068C0F38341ED
:101EB0002C48406800F0006008B141F0100129484A
:101EC000406800F0804008B141F020010F2901D2A4
:101ED000891C06E00F2903D33E2901D8491C00E0E4
:101EE0003F2104FB01F201E01F4A00BF00BF1D4873
:101EF0004068C0F3031504A8465D22FA06F31948AA
:101F00004068C0F3022502A8465D23FA06F0099056
:101F100014484068C0F3C2251DF8056023FA06F096
:101F2000089037B1012F06D0022F06D0032F0AD117
:101F300006E00A9208E00A9306E009980A9003E096
:101F400008980A9000E000BF00BF0A980CB0BDE8F6
:101F5000F08F0000000000000000000001020304F8
:101F6000060708090010024000127A00006CDC022B
:101F700000093D00064A02EB9011096800F01F03BA
:101F800001229A401143024B03EB901211607047FB
:101F900000100240064A02EB9011096800F01F038E
:101FA00001229A409143024B03EB9012116070475B
:101FB00000100240064A02EB9011096800F01F036E
:101FC00001229A401143024B03EB901211607047BB
:101FD00000100240002000213F4A126842F4803283
:101FE0003D4B1A6000BF401C3B4A126802F40031AE
:101FF00019B94FF6FF729042F5D1374A126802F4D0
:1020000000320AB900BFFEE7334AD26942F080527B
:10201000314BDA61314A126842F440422F4B1A6068
:102020002D4A52682C4B5A601A4652685A601A461A
:10203000526842F480625A601A46526822F4403272
:102040005A601A46526842F440325A601A46526840
:10205000234B1A40204B5A601A465268214B1A43B0
:102060001D4B5A601A46126842F080721A6000BF17
:10207000194A126802F00072002AF9D0174A126851
:1020800042F48032154B1A6000BF144A526802F4C1
:102090008032002AF9D0114A126842F400320F4B04
:1020A0001A6000BF0D4A526802F40032002AF9D0CB
:1020B000094A526822F00302074B5A601A465268D6
:1020C00042F002025A6000BF034A526802F008025E
:1020D000002AF9D070470000001002400070004054
:1020E000FFFFC3B70000340810B5FFF773FF10BD42
:1020F00000204FF0E02108614861886170470000CE
:102100000024002543E022A0FEF76CFC01212848B2
:10211000FFF74EFA01280BD0012D35D10025002301
:10212000032201212348006800F042FF00242BE035
:1021300005B90125641C322C26D31F480068A8B1BC
:102140001EA0FEF74FFC00BFBFF34F8F1A48001DC3
:10215000006800F4E06020490843001D1649091D8D
:102160000860BFF34F8F00BF00BFFEE71BA0FEF764
:1021700039FCFFF7BDFF2248FFF75AF90C48FFF77B
:1021800057F92048FFF76CFA0A2000F0D3FCBAE7B1
:1021900020746865207468726561645F4B455920DE
:1021A00069732072756E6E696E670D0A000000001B
:1021B000000801400000002008ED00E0456E746555
:1021C000722049415020426F6F746C6F6164657278
:1021D000202E2E2E0D0A00000000FA05456E7465B3
:1021E000722073797374656D2049535020426F6F6C
:1021F000746C6F61646572202E2E2E0D0A00000033
:10220000000C014000F0FF1F08B524A5012444E0A4
:1022100027A0FEF7E7FB2E48FFF788F82DA0FEF772
:10222000E1FB31480078012806D11421284600F04E
:10223000B7F900202C4908704FF4FA736A464FF042
:10224000FF31002000F0EEFF012816D0012C0FD145
:1022500004212648FFF7B4F9012801D0012000E04D
:1022600000200646324604212048FFF7B3F814E068
:1022700004211E48FFF7ACF80FE0009800F00100C1
:1022800058B1012C01D0012000E00020044618A024
:10229000FEF7A8FB1CA0FEF7A5FBB9E7555341527A
:1022A000543120495320726563656976650D0A00D3
:1022B000746865207468726561645F4C4544206988
:1022C000732072756E6E696E67200D0A0000000043
:1022D000A086010074657374207468652064656C61
:1022E00061790D0A000000000C000020000C014084
:1022F00048656C6C6F2C576541637420537475642A
:10230000696F0D0A0000000048656C6C6F2C467206
:10231000656552544F530D0A00000000416270473A
:1023200010B504463349601A8C4244D00CDCB4F139
:10233000804F1CD03048204410B3B0F5806F28D0B7
:10234000B0F5006F52D12DE0B0F5806F3CD0B0F504
:102350008E3F03D0B0F5923F48D13EE040F20B30C3
:10236000FFF728FE40F20B30FFF714FE3FE04FF47A
:102370008060FFF71FFE4FF48060FFF70BFE36E032
:1023800040F20140FFF716FE40F20140FFF702FE67
:102390002DE040F20240FFF70DFE40F20240FFF751
:1023A000F9FD24E040F20340FFF704FE40F2034051
:1023B000FFF7F0FD1BE040F20440FFF7FBFD40F2A9
:1023C0000440FFF7E7FD12E040F20540FFF7F2FDA1
:1023D00040F20540FFF7DEFD09E040F20D30FFF767
:1023E000E9FD40F20D30FFF7D5FD00E000BF00BF72
:1023F00010BD00000010004000FCFFBF016821F08C
:10240000010101607047016841F0010101607047FE
:102410000A8882621D4A90420ED0B0F1804F0BD0E4
:102420001B4A904208D01B4A904205D01A4A90425B
:1024300002D01A4A90420BD1026822F07002026068
:1024400002684B881A43026002688B881A43026054
:102450008A68C262124A90420AD0124A904207D059
:10246000026822F4407202600268CB881A4302605C
:10247000064A904202D0094A904201D10A7B026387
:10248000426942F00102426170470000002C0140A5
:102490000004004000080040000C004000340140EF
:1024A0000010004000140040C2680A43C260704738
:1024B000CA43026170470246D06800EA010310690E
:1024C000084010B10BB1012070470020FCE700006C
:1024D00010B540F20260FFF74DFD40F20E60FFF7CD
:1024E00049FD4FF40073032218210F48FFF702F84B
:1024F0004FF48063032204210B48FEF7FBFF0B48D7
:1025000000F0B8F84FF4E131084800F061F8042118
:10251000064800F041F90821044800F045F9034855
:1025200000F0F0F810BD0000000801400038014044
:1025300010B540F20260FFF71DFD40F21170FFF789
:1025400019FD0423032218211348FEF7D3FF0823A3
:10255000032204211048FEF7CDFF104800F08AF84E
:102560004FF4E1310D4800F033F804210B4800F03E
:1025700013F90821094800F017F905220021262047
:10258000FFF7A2F840F20531044800F0CFF8034805
:1025900000F0B8F810BD0000000801400044004001
:1025A00070B505460E4600240CE0295D074800F092
:1025B0005CF800BF0721054800F0A9F80028F9D011
:1025C000601CC4B2B442F0D370BD000000440040AF
:1025D0002DE9F04704460D460027B846B9460026C7
:1025E0001D49601A8C421CD006DC1C48204470B186
:1025F000B0F5806F1FD10FE0B0F5806F16D0B0F549
:102600006C4F18D10320FFF709FC074614E00220A5
:10261000FFF704FC07460FE00220FFF7FFFB074629
:102620000AE00220FFF7FAFB074605E00220FFF769
:10263000F5FB074600E000BF00BF07EB5500B0FB0D
:10264000F5F64FF6F07006EA000806F00F0948EAC2
:102650000900A060BDE8F087004C004000BCFFBF4F
:1026600001464868C0F308007047C1F308024260A1
:102670007047000010B504462049601A8C4228D0EB
:1026800006DC1F48204490B1B0F5806F33D117E0CD
:10269000B0F5806F26D0B0F56C4F2CD140F20E30E3
:1026A000FFF788FC40F20E30FFF774FC24E040F2A4
:1026B0001140FFF77FFC40F21140FFF76BFC1BE07D
:1026C00040F21240FFF776FC40F21240FFF762FC46
:1026D00012E040F21340FFF76DFC40F21340FFF7A9
:1026E00059FC09E040F21440FFF764FC40F214404A
:1026F000FFF750FC00E000BF00BF10BD004C0040E1
:1027000000BCFFBFC16841F40051C160704710B503
:10271000024602EB9110006801F01F040123A34060
:10272000184008B1012010BD0020FCE710B500EBF7
:102730009112126801F01F040123A3401A4300EB19
:1027400091131A6010BD10B500EB91521268C1F3DD
:1027500004440123A3409A4300EB91531A6010BD37
:1027600070B5024600230024C1F38910105801F00F
:102770001F060125B54000EA050302EB91500068F1
:10278000C1F304460125B54000EA050414B10BB1BC
:10279000012070BD0020FCE70A460021C16821F03D
:1027A00004011143C16070470A460021C16821F04D
:1027B00008011143C160704701460A69D1E901303F
:1027C0009860D1E9010358605068884201D1886857
:1027D0005060002008611068401E1060106870474B
:1027E00000F1080141604FF0FF31816000F1080104
:1027F000C1600161002101607047002101617047E3
:1028000010B502460B685C1C0CB9106907E002F1B8
:10281000080000E04068446824689C42FAD9446893
:102820004C604C68A160886041600A611468641C57
:10283000146010BD42684A6093688B609368596069
:102840009160086103685B1C0360704700BF502003
:1028500080F31188BFF34F8FBFF36F8F00BF0E4817
:102860000068401C0C49086008460068012812D125
:102870000A480068C0B208B9012000E0002050B941
:1028800000BF502080F31188BFF34F8FBFF36F8FCD
:1028900000BF00BFFEE770473400002004ED00E0F9
:1028A0000D48006850B900BF502080F31188BFF375
:1028B0004F8FBFF36F8F00BF00BFFEE70648006871
:1028C000401E054908600846006820B9002080F3D2
:1028D000118800BF00BF70473400002070B5064665
:1028E0003546002E44D0083D2C46224960680968D0
:1028F000084008B1012000E0002050B900BF50207E
:1029000080F31188BFF34F8FBFF36F8F00BF00BFFD
:10291000FEE7206808B9012000E0002050B900BFA0
:10292000502080F31188BFF34F8FBFF36F8F00BF2C
:1029300000BFFEE70F49606809680840C0B1206821
:10294000B0B90C49606809688843606000F0FEF91E
:102950000949606809680844074908602046FFF78C
:1029600033F906480068401C0449086000F0AAFCDE
:1029700070BD000030000020200000202C0000204E
:10298000154800684FF47A71B0FBF1F01349086004
:10299000084600686FF07F41B1FBF0F01049086015
:1029A0000D480068B0FBF0F02D21B1FBF0F00D49AF
:1029B000086000204FF0E021086188610648006847
:1029C0004FF47A71B0FBF1F0401E4FF0E021486106
:1029D0000720086170470000100000203800002028
:1029E0003C000020400000202DE9F04104464E4804
:1029F0000068844201D94C4804684FF0E020006927
:102A000020F001004FF0E021086108468169601E56
:102A1000464A126802FB001545480068854202D903
:102A2000434800682D1A72B6BFF34F8FBFF36F8F04
:102A3000FEF79EFC80B94FF0E02080694FF0E02166
:102A400048610846006940F00100086137480068A5
:102A5000401E486162B665E04FF0E020456100200D
:102A60004FF0E02188610846006940F001000861EC
:102A7000A046B8F1000F04D0BFF34F8F30BFBFF3B3
:102A80006F8F62B6BFF34F8FBFF36F8F72B6BFF316
:102A90004F8FBFF36F8F06204FF0E021086108468B
:102AA000006900F48030B8B120490968491E4FF030
:102AB000E0229269AA1A881A1D490968884203D33C
:102AC0001A490968884202D918490968481E4FF016
:102AD000E0214861661E12E01448006860434FF030
:102AE000E0218969471A11480068B7FBF0F6701CAD
:102AF0000E4909684843C01B4FF0E021486100209F
:102B00004FF0E02188610846006940F0010008614B
:102B1000304600F0FBF805480068401E4FF0E02109
:102B2000486162B6BDE8F0813C000020380000201A
:102B30004000002070B504460025D4B1124800685A
:102B400008B9012000E0002050B900BF502080F3F8
:102B50001188BFF34F8FBFF36F8F00BF00BFFEE739
:102B600000F0F4F800212046FEF71AFE00F0AAFB60
:102B700005463DB94FF0805004490860BFF34F8FC0
:102B8000BFF36F8F70BD00008400002004ED00E0F3
:102B900070B50546FFF75AFE15B93048006800E0E9
:102BA00028460446201DFFF707FE78B9E06A00EBCF
:102BB00080002B4951F8200040B994F82C100120D6
:102BC000884028490968814326480160A06A18B1F5
:102BD00004F11800FFF7F0FD23480068401C22496B
:102BE00008601E480068844209D1211D1F48FFF774
:102BF00021FE1F480068401C1D49086009E01D486F
:102C00000068401E1B4908602046FEF79BFEFFF748
:102C10000FF8FFF745FE18480068E8B10F48006854
:102C2000844219D11548006808B9012000E000204D
:102C300050B900BF502080F31188BFF34F8FBFF30E
:102C40006F8F00BF00BFFEE74FF080500C49086057
:102C5000BFF34F8FBFF36F8F70BD00004C0000209B
:102C60008C46002064000020780000202C470020C3
:102C7000580000205C000020680000208400002034
:102C800004ED00E01CB51A4800210B468022CDE976
:102C9000001018A1194800F05BF90446012C15D169
:102CA00000BF502080F31188BFF34F8FBFF36F8FA9
:102CB00000BF4FF0FF301249086001201149086041
:102CC00000201149086000F08FF810E0601C08B186
:102CD000012000E0002050B900BF502080F311888F
:102CE000BFF34F8FBFF36F8F00BF00BFFEE71CBD68
:102CF0008000002049444C4500000000211A0008D3
:102D00007C00002068000020600000200D49096858
:102D100001440D4A1268914201D8012100E00021CE
:102D200051B900BF502181F31188BFF34F8FBFF31A
:102D30006F8F00BF00BFFEE7024909680144014AE6
:102D400011607047600000207C000020024800688D
:102D5000401C014908607047840000201D4800683D
:102D600018B101201C49086032E000201A490860AF
:102D70001A480068B0FA80F0C0F11F0101EB810031
:102D8000174A52F8200008B1012000E0002050B995
:102D900000BF502080F31188BFF34F8FBFF36F8FB8
:102DA00000BF00BFFEE701EB81020D4B03EB820089
:102DB00042685268426000F108024368934202D1BF
:102DC0004268526842604268D268064B1A6000BF8F
:102DD0007047000084000020700000206400002084
:102DE0008C4600204C0000201CB552480068524917
:102DF000884201D0012000E0002050B900BF5020DF
:102E000080F31188BFF34F8FBFF36F8F00BF00BFF8
:102E1000FEE7484800684849491E884201D0012021
:102E200000E0002050B900BF502080F31188BFF3AC
:102E30004F8FBFF36F8F00BF00BFFEE73F490846CB
:102E400000780190FF200A46107008460078009034
:102E50009DF8000000F0F0009DF80020904201D1A4
:102E6000012000E0002050B900BF502080F31188FD
:102E7000BFF34F8FBFF36F8F00BF00BFFEE79DF81A
:102E8000000000F050002E4A107007202D4A1060FC
:102E900009E02C480068401E2A4A10609DF8000096
:102EA0004006000E00909DF8000000F08000802891
:102EB000EFD024480068C0F10700042801D10120A8
:102EC00000E0002050B900BF502080F31188BFF30C
:102ED0004F8FBFF36F8F00BF00BFFEE71948006838
:102EE0000002184A10601046008800F4E06010608C
:102EF000124A019810700F482030006840F47000AA
:102F00000C49203108600846006840F070400860B5
:102F1000FFF736FD00200C490860FDF737F90B4834
:102F2000006840F0404009490860FDF71BF90020A7
:102F30001CBD000000ED00E071C20F4100E400E0A4
:102F400044000020480000203400002034EF00E05E
:102F50002DE9FF4F85B0804689461746DDE912AB63
:102F6000B800FEF79FFE064656B15820FEF79AFEBF
:102F700004460CB1266304E03046FFF7AFFC00E0E6
:102F800000247CB10020CDE900ABCDE902403A46F7
:102F900049464046089BFEF781FD2046FEF752FC5D
:102FA000012501E04FF0FF35284609B0BDE8F08F5C
:102FB0002DE9F04706460D46174698464FF0010AA0
:102FC00056B900BF502080F31188BFF34F8FBFF375
:102FD0006F8F00BF00BFFEE73446FFF737FCB8F144
:102FE000000F02D0206DC8F8000094F85490022021
:102FF00084F85400052F17D2DFE807F01503070BFC
:103000000D00206D2843206521E0206D401C2065C7
:103010001DE025651BE0B9F1020F01D0256501E037
:103020004FF0000A13E012E0206D401C08B90120A7
:1030300000E0002050B900BF502080F31188BFF39A
:103040004F8FBFF36F8F00BF00BFFEE700BF00BF11
:10305000B9F1010F35D1201DFFF7AEFB94F82C100C
:103060000120884019490968084318490860E16A45
:1030700001EB8101164A02EB8100211DFFF7DAFB0B
:10308000A06A08B9012000E0002050B900BF50201C
:1030900080F31188BFF34F8FBFF36F8F00BF00BF66
:1030A000FEE7FEF7C5FD0B49E06A0968C96A884278
:1030B00007D94FF0805008490860BFF34F8FBFF326
:1030C0006F8FFFF7EDFB5046BDE8F08764000020EE
:1030D0008C4600204C00002004ED00E02DE9F0417A
:1030E0004FF000084448006800287CD1434800683D
:1030F000451C4248056015BB41480068006808B996
:10310000012000E0002050B900BF502080F311885A
:10311000BFF34F8FBFF36F8F00BF00BFFEE738488C
:1031200007683848006836490860364807603648FE
:103130000068401C34490860FEF77AFD00BF334840
:10314000006885423CD300BF2D480068006808B97C
:10315000012000E0002020B14FF0FF302B49086033
:103160002DE027480068C068C4686668B54202D28E
:103170002648066023E0201DFFF71EFBA06A18B159
:1031800004F11800FFF718FB94F82C100120884078
:103190001F49096808431E490860E16A01EB810183
:1031A0001C4A02EB8100211DFFF744FB1A49E06A2B
:1031B0000968C96A8842C7D34FF00108C4E700BF55
:1031C00015480068C06A00EB8000124951F82000E1
:1031D000012801D94FF001081048006808B14FF0EC
:1031E000010805E0FFE70E480068401C0C49086034
:1031F0004046BDE8F081000084000020600000200F
:103200005000002054000020740000207C000020AA
:10321000640000208C4600204C000020700000203C
:103220006C0000202DE9F0410746884614461D46F3
:10323000FFF70CFB2148006890F85400022818D0D2
:103240001E49096801F15000096DB9430160012070
:103250001A49096881F854005DB101212846FEF73A
:103260009FFA4FF0805016490860BFF34F8FBFF3AD
:103270006F8FFFF715FBFFF7E9FA1CB10F480068E5
:10328000006D20600D48006890F85400022801D0BD
:10329000002608E00949096801F15000096D21EA9A
:1032A00008010160012600200449096881F85400E2
:1032B000FFF7F6FA3046BDE8F08100004C00002030
:1032C00004ED00E070B5002400263648006850B9CF
:1032D00000BF502080F31188BFF34F8FBFF36F8F73
:1032E00000BF00BFFEE7FFF7B1FA2E480068401E9E
:1032F0002C4908600846006800284FD12A48006819
:1033000000284BD024E02948C068C46804F11800A4
:10331000FFF752FA201DFFF74FFA94F82C10012006
:10332000884023490968084321490860E16A01EBA4
:103330008101204A02EB8100211DFFF77BFA1E4923
:10334000E06A0968C96A884202D301201B49086003
:103350001648006808B9012000E000200028D2D0FB
:103360000CB1FEF765FC1648056865B100BFFFF7B4
:10337000B5FE10B10120114908606D1E002DF6D177
:1033800000200F4908600D48006838B10126300759
:103390000C490860BFF34F8FBFF36F8FFFF780FAC0
:1033A000304670BD840000205C00002018470020DB
:1033B000640000208C4600204C000020700000209B
:1033C0006C00002004ED00E0E8330008000000205D
:1033D0008C000000040A0008743400088C000020EF
:1033E000CC4A0000140A00080000000000000000A1
:1033F0000000000000000000000E27070000000091
:1034000000000000000000000000000000000000BC
:10341000000000000000000000000000AAAAAAAA04
:10342000000000000000000000000000000000009C
:10343000000000000000000000000000000000008C
:10344000000000000000000000000000000000007C
:10345000000000000000000000000000000000006C
:10346000000000000000000000000000000000005C
:043470000000000058
:0400000508000131BD
:00000001FF
