:020000040800F2
:100000000017002045010008D10200084B0200083B
:10001000CF020008CB020008C50300080000000062
:10002000000000000000000000000000D3020008F3
:10003000CD0200080000000097010008D50200086A
:100040005F0100085F0100085F0100085F01000810
:100050005F0100085F0100085F0100085F01000800
:100060005F0100085F0100085F0100085F010008F0
:100070005F0100085F0100085F0100085F010008E0
:100080005F0100085F0100085F0100085F010008D0
:100090005F0100085F0100085F0100085F010008C0
:1000A0005F0100085F0100085F0100085F010008B0
:1000B0005F0100085F0100085F0100085F010008A0
:1000C0005F0100085F0100085F0100085F01000890
:1000D0005F0100085F0100085F0100085F01000880
:1000E0005F0100085F0100085F0100085F01000870
:1000F0005F0100085F0100085F0100085F01000860
:100100005F0100085F0100085F0100085F0100084F
:100110005F0100085F0100085F0100085F0100083F
:100120005F0100085F0100085F0100085F0100082F
:10013000DFF80CD000F0B2F800480047C102000818
:10014000001700200648804706480047FEE7FEE704
:10015000FEE7FEE7FEE7FEE7FEE7FEE7FEE7FEE777
:100160006903000831010008EFF3108072B6704790
:1001700080F310887047434A1368012B04D04FF076
:1001800001031360404A1060404A116040484FF03C
:10019000805101607047EFF3108272B639480168F0
:1001A00051B34FF0000101603748016891B1EFF39E
:1001B00009811EF0100F08BF21ED108B21E9F00F0F
:1001C0004FF000041EF0100F08BF012441F8044D49
:1001D000006801602D490968096808C9B1E8F00F95
:1001E000002B18BFB1EC108B81F309884EF0100E74
:1001F000002B18BF2EF0100E82F310884EF0040E64
:10020000704722490860EFF3148222F0040282F35F
:1002100014881D494FF0000008601A494FF0010092
:1002200008601C484FF47F01D0F8002041EA020129
:10023000016017484FF0805101601748006800685E
:1002400080F3088861B662B670471EF0040F0CBFD9
:10025000EFF30880EFF3098020E9F00F40F804ED98
:1002600040F804ED1EF0040F0CBF80F3088880F303
:10027000098800B500F014FD5DF804EB4EF0040EA3
:100280007047000020000020180000201C00002003
:1002900004ED00E020ED00E008ED00E0064C074D25
:1002A00006E0E06840F0010394E807009847103446
:1002B000AC42F6D3FFF740FF1023000830230008BC
:1002C00010B501F097FD002010BDFEE77047FEE776
:1002D0007047704710B500F009FE01F061FBBDE802
:1002E000104000F011BE00001B4A10B550681B49B9
:1002F0001B4BC0F3810060B301282AD0022828D10B
:10030000506800F480344810B4F5803F0AD1D46AB4
:1003100014F0804F00D01349546804F40034B4F54D
:10032000003F00D1014650685468C0F38340240167
:1003300001D540F010005268520001D540F0200075
:100340000F2801D3401C00E0801C3D2800D93F202D
:100350004143196010BD00000010024000127A00F5
:1003600010000020006CDC02134882B0016841F4E8
:10037000700101601148016841F0010101604168AC
:1003800041F080014160002144F620620091009B11
:100390005B1C00939342FAD34160C1620168084A32
:1003A000114001604FF41F018160016821F4802138
:1003B000016002B001F048BD88ED00E0001002408D
:1003C000FFFFF6FEFEE70000014A024900F040B8D8
:1003D00025050008A4000020002807D00E4910F0D1
:1003E000FF0F04D051FA80F00078401C704710F4E1
:1003F0007F4F04D0C0F30720085C0930704710F429
:100400007F0F04D0C0F30740085C1130704701EB48
:100410001060007819307047DC21000802E008C83D
:10042000121F08C1002AFAD170477047002001E06E
:1004300001C1121F002AFBD1704700000348016868
:10044000814201D0012070470020704790000020B9
:100450002DE9F04116460F460446002503E03946D3
:10046000B047641C6D1C20780028F8D12846BDE8F0
:10047000F08100002DE9FC411F460446DDE908310A
:10048000DDE90A65143040600060C4E90827C4E96A
:100490000A310A46232118461C3400F023FED4E911
:1004A00003014218D4E90101104B121F00F000FDB6
:1004B00044F81A0B002004F801690D4A04F8036B94
:1004C000E4E8020544F8105901C404F83C0B01C4E7
:1004D00044F87409009023460190194604F1440041
:1004E00001F0D0FA0020BDE8FC810000A916000848
:1004F000DF18000810B5029C24F001044472C0E922
:1005000007120021C0E9093114304060006010BDBD
:10051000F0E905124A60D0E9001211604060006005
:100520007047000070B5074D0446C1B2284601F07F
:1005300009FE0721284601F03AFE0028F9D020469E
:1005400070BD000000380140416170470AB101618F
:10055000704741617047000010B54FF4C06000F073
:1005600085FA40F2026000F081FA40F2036000F088
:100570007DFA01210A4800F0AFF801230322282167
:10058000084800F04BF8084C0423032210212046B1
:1005900000F044F82046BDE810400421FFF7D4BF26
:1005A0000002300000080140000C014010B5194C59
:1005B0002115031B4A00A04221D009DC164BC018AC
:1005C00017D0884218D0904222D14FF4417408E0ED
:1005D0008B4217D0934218D0B3F5406F18D14FF427
:1005E0004274204600F05EFA2046BDE8104000F05C
:1005F0004BBA40F20234F4E740F20334F1E740F240
:100600000534EEE740F20634EBE740F20734E8E762
:1006100010BD00000014014000F8FEBF2DE9F043BA
:1006200001F00F04CD0602D5042A19D01443002589
:100630004FF00F095FF0010202FA05F61E401AD0D2
:1006400007684FEA850C09FA0CF827EA080704FA4C
:100650000CF848EA0708282908D0482908D008E0FB
:10066000C26B44F003041A43C263E0E7466100E052
:100670000661C0F800806D1CADB2082DDCD30825E2
:1006800002FA05F61E4016D047684FEA8508A8F121
:10069000200809FA08FC27EA0C0704FA08FC4CEACF
:1006A000070C282902D0482902D002E0466100E068
:1006B0000661C0F804C06D1CADB2102DE0D3BDE8DA
:1006C000F0838068084000D001207047C06808406F
:1006D00000D0012070470000F0B5144C002801DA6A
:1006E000E36900E06368420D120185B2C0F301576F
:1006F0009540C0F30346032F05D0C2020AD503225A
:10070000B240934307E023F0E062636823F0E063C4
:10071000636002E0AB4343F0E06201B12A4300288A
:1007200001DAE261F0BD6260F0BD0000000001404E
:100730000168054A1140B1F1005F04D141680068C9
:1007400080F30888084770470000FE2F7CB5FFF74C
:1007500003FF01F099FC0525009580230022124932
:1007600012A0019500F059FF114C80230022206057
:100770000095104910A0019500F04FFF0022606025
:1007800011460EA000F0D6FDE060206801F070F880
:10079000606801F06DF80BA0FFF716FE01F042F85B
:1007A00000F062FF00207CBDF91F00084C454400AA
:1007B00000000020151F00084B4559004C45445FC0
:1007C0005357000052542D5468726561642044658B
:1007D0006D6F0D0A0000000010B500F095F9BDE83E
:1007E0001040FFF7B3BF000030B5134943680A68F3
:1007F000134402F1080498420DD05D885DB94D683C
:10080000AB4208D08D689D4200D188605D6845602C
:100810005B68851A1D518368134483420BD05D8841
:10082000002D08D18D68854200D18B6041685960E8
:100830004068991A015130BD2C0000202DE9F04F7D
:1008400085B09946DDE90EA5109CAB46630602D53E
:10085000DFF814C103E0DFF810C1ACF1110CE306BE
:1008600001D524F00104E30701D0302300E0202368
:1008700000260493A3070BD5002A02DA2D26524244
:1008800006E0630701D52B2602E0230700D52026CA
:100890000023EE4622B930228DF8002001230CE01F
:1008A000B9F10A0F14D002F00F0812091CF80880E1
:1008B0000EF803805B1C002AF2D1AB4200DD1D461E
:1008C000AAEB050214F0110F4FF0200708D015E035
:1008D0000A27B2FBF7F807FB1828B2FBF7F2E5E7A7
:1008E0003EB1002A05DD521E03E0884200D20770A7
:1008F000401CB2F1000CA2F10102F6DC26B18842E4
:1009000000D20670401C521EE40605D508E088425D
:1009100001D2049C0470401C141EA2F10102F6DCFA
:1009200030242E466D1E9E420ADD884200D204709D
:10093000401CF6E7884201D2E55C0570401C00E0EF
:1009400074461D1EA3F1010307DDBBF1000FF1D1B9
:1009500003E0884200D20770401C131EA2F101027E
:10096000F7DC05B0BDE8F08FED22000870B537A5C3
:1009700088B02ECD8DE82E0035A20446D2E90012B3
:10098000CDE9041232A20020D2E90012CDE906120C
:10099000324A5168324BC1F3810119B1012901D0AA
:1009A000022901D019462BE0516801F480352D4908
:1009B000B5F5803F0AD1D56A15F0804F00D02A4B9B
:1009C000556805F40035B5F5003F00D10B46516878
:1009D0005568C1F383412D0101D541F010015568DF
:1009E0006D0001D541F020010F2901D2891C06E0DC
:1009F000A1F10F052F2D01D8491C00E03F215943DB
:100A00005368C3F303131DF8035021FA05F3556827
:100A100004AEC5F302255268755D23FA05F5C2F3ED
:100A2000C22206AEB25C23FA02F244B1012C08D015
:100A3000022C08D0032C00D1104608B070BD084627
:100A4000FBE71846F9E72846F7E70000000000003A
:100A5000000000000102030406070809001002401C
:100A600000127A0000093D00006CDC02054901EB30
:100A700090110A6800F01F030120984002430A60A9
:100A80007047000000100240054901EB90110A6810
:100A900000F01F030120984082430A607047000065
:100AA00000100240054901EB90110A6800F01F0395
:100AB0000120984002430A60704700000010024085
:100AC0001CB502201421CDE90001C3010022044914
:100AD00004A000F0A2FDBDE81C4000F0C9BE00006B
:100AE000D90700086D61696E0000000070B5044C04
:100AF000044D02E020688047241DAC42FAD370BD4B
:100B0000042300080823000870B5044C044D02E0DB
:100B100020688047241DAC42FAD370BD082300082A
:100B20000C23000810B5FFF71FFB044A5188491C2D
:100B30005180BDE81040FFF71BBB0000840000207F
:100B400010B5FFF711FB0B4C6188491E09B261809B
:100B500000290ADC00216180FFF70AFB6068002899
:100B600007D0BDE8104000F06DBBBDE81040FFF7B6
:100B7000FFBA10BD8400002070B5002833D01A4D94
:100B8000296888422FD3696888422CD2A0F10C04CE
:100B90004FF0FF31154800F00AFC60884FF4F5561D
:100BA00010B12088B04208D011A000F0E5F92388E8
:100BB0006288214615A000F0DFF9002060802680C1
:100BC000A868844200D2AC6029686068611A401A43
:100BD0002969081A28612046FFF706FEBDE8704023
:100BE000024800F0C9BB70BD2C000020A00200200C
:100BF000746F2066726565206120626164206461A3
:100C0000746120626C6F636B3A0A00006D656D3A27
:100C1000203078253038782C207573656420666C18
:100C200061673A2025642C206D6167696320636FDA
:100C300064653A203078253034780A0000487047DF
:100C400000030020004870470013002010B5FFF794
:100C50004BFB10484FF47A710068B0FBF1F0401E76
:100C6000B0F1807F0AD24FF0E02148610A4AF020BB
:100C700082F8140D0020886107200861FFF736FF15
:100C8000FFF7E0FF0446FFF7D9FF2146BDE810401B
:100C900000F038BC100000200FE000E070470000BA
:100CA00070B52F490546283009682C1D11B18847B9
:100CB000002853D02BA0216C00F05EF92DA0616AB2
:100CC00000F05AF92FA0A16A00F056F931A0E16AAC
:100CD00000F052F933A0216B00F04EF935A06168A5
:100CE00000F04AF937A0A16800F046F939A0E168A0
:100CF00000F042F93BA0216900F03EF93DA0616996
:100D000000F03AF93FA0A16900F036F941A0E1698D
:100D100000F032F943A0216A00F02EF945A0616B82
:100D200000F02AF947A0A16B00F026F949A0E16B79
:100D300000F022F92878400706D500F073FD01463F
:100D400048A000F019F902E04EA000F015F928784B
:100D5000C00602D452A000F00FF9FEE770BD0000FB
:100D6000140000207073723A203078253038780AE9
:100D7000000000007230303A203078253038780A90
:100D8000000000007230313A203078253038780A7F
:100D9000000000007230323A203078253038780A6E
:100DA000000000007230333A203078253038780A5D
:100DB000000000007230343A203078253038780A4C
:100DC000000000007230353A203078253038780A3B
:100DD000000000007230363A203078253038780A2A
:100DE000000000007230373A203078253038780A19
:100DF000000000007230383A203078253038780A08
:100E0000000000007230393A203078253038780AF6
:100E1000000000007231303A203078253038780AEE
:100E2000000000007231313A203078253038780ADD
:100E3000000000007231323A203078253038780ACC
:100E400000000000206C723A203078253038780A93
:100E5000000000002070633A203078253038780A8E
:100E60000000000068617264206661756C74206F18
:100E70006E207468726561643A2025730D0A0D0A4C
:100E80000000000068617264206661756C74206FF8
:100E90006E2068616E646C65720D0A0D0A000000B8
:100EA00046505520616374697665210D0A00000083
:100EB00070B50446121D22F0070000220A4D443886
:100EC00040F82250521C112AFAD34162002181625B
:100ED000C16200F13402016382E81A004FF08073AE
:100EE0000364016070BD0000EFBEADDE10B5FFF71A
:100EF0003BF9044A1178491C1170BDE81040FFF716
:100F000037B900002800002010B5FFF72DF9044A7A
:100F10001178491E1170BDE81040FFF729B9000093
:100F2000280000202DE9F041064614460D460846EB
:100F300000F0B4FC05F11407B4B1012C18D13468E9
:100F40000EE000BF95F8351094F82120A4F11400AC
:100F5000914204D23946143000F033F802E024689C
:100F6000B442EFD1B44203D13946304600F029F8FB
:100F70000020BDE8F08100000FB47F2110B503AB65
:100F80000448029A00F0F0FD0248FFF787FE10BC0B
:100F90005DF814FB200200200268516002680A60BC
:100FA0000160486070470268516002680A60016031
:100FB000486070470268516002680A6001604860DA
:100FC00070474268116042684A604160086070473B
:100FD000D0E900124A60D0E9001211604060006060
:100FE0007047D0E900124A60D0E9001211604060F9
:100FF000006070472DE9F047002807D0374CC01C2F
:1010000020F00306E068864202D90020BDE8F087A0
:101010000C2E00D20C264FF0FF31314800F0C7F9FA
:10102000D4F808C02168E768ACEB0100BA1B4FE0B8
:101030000D186B88E3BB6B681B1A0C3BB34246D39D
:101040006A6806F11803121A0C3A4FF001094FF4BE
:10105000F55A9A422DD383190C33CA184FF0000861
:10106000A2F800A0A2F80280D5F80480C2E90180AD
:101070006B60A5F8029050680C37B84202D001F1BD
:1010800008028350206930440C302061626982423A
:1010900000D26061A5F800A0654512D1A068428821
:1010A0007AB1626890420CD040680844A060F6E7CC
:1010B0000DE0A5F8029068686A1A801A2269104447
:1010C000E3E7074800F058F905F10C009EE768686F
:1010D0008242ADD8024800F04FF996E72C0000207C
:1010E000A002002010B50346CCB2042A1AD381070F
:1010F00018D1194644EA042343EA034306E008C131
:10110000103A08C141F8083B41F8043C102AF6D2D5
:1011100001E008C1121F042AFBD20B4602E000BF07
:1011200003F8014B521EFBD210BD2DE9F0410F46D2
:10113000064600F045F80546C068FFF75BFF04006F
:1011400019D00021EA68FFF7CDFF267200206072F7
:1011500008223946204600F0C1F9FFF705F8064697
:1011600004F10C01281DFFF717FF3046FFF700F8C8
:101170002046BDE8F0810020FBE770B50446002062
:101180002072FEF7F1FF054604F10C00FFF720FF87
:101190002846FEF7EDFF2046BDE87040FFF7ECBCA7
:1011A00070B5044600202072FEF7DEFF054604F10C
:1011B0000C00FFF70DFF2846BDE87040FEF7D8BFD2
:1011C000074A002102EB01131B78834202D102EB94
:1011D00001107047491C0429F4DB0020704700000F
:1011E000440000202DE9F041044616460D4608460D
:1011F000FFF7E6FF0746FFF795FC381D796800E02A
:1012000009688142FCD1FFF79BFC45F08000207209
:1012100008223146204600F061F9FEF7A5FF054699
:1012200004F10C01381DFFF7B7FE2846BDE8F04178
:10123000FEF79EBF007A000601D50120704700200E
:101240007047000070B5FEF78FFF114C05466088AF
:10125000B0B9A068FFF7C0F80E49401E626851F8A7
:101260003010143991420BD020700B486160007827
:1012700001F11C01002802F11C0006D0FEF77BFFE3
:101280002846BDE87040FEF773BFFEF774FFF7E72E
:1012900084000020C00200202800002010B5044671
:1012A000FEF762FF024694F834000E4920F00F006A
:1012B000401C84F8340094F8350001EBC00104F1BF
:1012C00014004B6818604B68A36148600648616170
:1012D000A16B836819438160BDE810401046FEF79A
:1012E00047BF0000C00200208400002010B5044663
:1012F000FEF73AFF04F11401D1E900235360D1E96C
:1013000000231A60A161616194F83520074951F802
:10131000323001EBC2018B4204D10549A36B8A68CC
:101320009A438A60BDE81040FEF722BFC002002049
:101330008400002070B50C46014615460220FFF7D8
:10134000F4FE002805D000F114018161416184831D
:10135000457270BD2DE9F04116460A461F46054606
:101360000221FFF73FFF05F11404AC616C61AE830D
:101370006F720020BDE8F08170B50446FEF7F4FE00
:101380000546606904F11401884208D0143800F061
:101390002BFA2846FEF7ECFEFFF754FF05E0A08B82
:1013A000401CA0832846FEF7E3FE002070BD73B505
:1013B0000546FEF7D9FE0646A88B28B1401EA88335
:1013C0003046FEF7D5FE21E0019808B300F02AFA76
:1013D0000446002020636A7A214605F11400FFF7D5
:1013E000A1FD0198002809DD04F1440001AA0021B3
:1013F000054600F01FFB284600F058FB3046FEF77C
:10140000B7FEFFF71FFF206B002800D100207CBD36
:101410003046FEF7ADFE6FF001007CBD08B509A0B7
:10142000FFF7AAFD0AA0FFF7A7FD12A00323009073
:101430000122194612A0FFF79FFDBDE8084018A041
:10144000FFF79ABD0A205C207C202F0A00000000D4
:101450002D205254202D20202020205468726561B8
:1014600064204F7065726174696E6720537973747C
:10147000656D0A004D617220323220323032310007
:10148000202F207C205C202020202025642E256415
:101490002E2564206275696C642025730A000000A3
:1014A0002032303036202D203230313920436F70D9
:1014B0007972696768742062792072742D74687219
:1014C000656164207465616D0A000000014600E0FA
:1014D000491C0A78002AFBD1081A704710B5002A67
:1014E00007D0034611F8014B03F8014B2CB1521EF3
:1014F000F8D110BD03F8011B00E00021521EF9D104
:1015000010BD00000A46C11C10B522F0030321F0F3
:101510000301182B20D9A3F118048C421CD3114CC1
:10152000581A18382160E0604FF4F5520A80002301
:101530000C30C1E901034B804B68194461600A809B
:1015400001224A8048608860002307A10848FFF70D
:1015500001FF2068A06010BD0146BDE8104005A055
:10156000FFF70ABD2C0000206865617000000000D4
:10157000A00200206D656D20696E69742C20657273
:10158000726F7220626567696E2061646472657350
:101590007320307825782C20616E6420656E64207D
:1015A0006164647265737320307825780A000000E6
:1015B00010B50A4900230A4C4B80184604EBC002C0
:1015C000401C526012600828F8DB072008700348AE
:1015D0004B600C308B604060006010BD84000020C8
:1015E000C002002010B5074CA068FEF7F5FE0649C2
:1015F000401E51F8300014386060BDE810401C30C7
:10160000FEF7FFBD84000020C002002001484060BA
:10161000006070479C00002070472DE9FF47894615
:10162000DDE90C76824601461D4690460120FFF713
:101630007CFD041E0DD02846FFF7DCFC60B103964C
:101640008DE8A10043464A4651462046FEF712FF68
:10165000204604B0BDE8F0872046FFF78EFD00204D
:10166000F7E700F0E5B8000070B5044690F83400E4
:10167000000702D02046FFF739FE04F1440000F0D5
:10168000F1F9042084F83400FEF76EFD054604F1FC
:1016900014010448FFF787FC2846FEF769FD002087
:1016A00070BD00009000002070B513480468FEF77C
:1016B0005BFD05462046FFF719FE042084F8340040
:1016C00004F1440000F0CEF92046FFF7B3FD0128F5
:1016D00001D1206F58B104F114010848FFF763FCF1
:1016E0002846FEF745FDBDE87040FFF7ABBD20463C
:1016F000FFF756FDF4E7000088000020900000206E
:1017000000F002F8FCE7000070B527E0FEF72CFDC2
:101710000546FEF793FE58B318480168A1F114047A
:10172000D1E900024260D1E900021060496009601D
:10173000FFF7F8F9216F09B1204688472046FFF7E7
:1017400079FD01280FD0FFF7FBF92846FEF710FDC1
:10175000A06AFFF711FA2046FFF70FFDFEF76EFEB5
:101760000028D3D170BD2046FFF71AFDFFF7E8F936
:101770002846BDE87040FEF7FBBC0000900000204A
:101780001FB5202308480722D9008DE80F00002349
:10179000064A07A1783800F00FF804B00248BDE807
:1017A0001040783800F064B82001002001170008CC
:1017B0007469646C650000002DE9FF5F92460EAA13
:1017C0000C4692E8E0010A46994683460121FFF75C
:1017D00009FD8DE8E0014B46524621465846FEF78A
:1017E00049FE04B0BDE8F09F70B5044690F834009F
:1017F00000F00F00022802D04FF0FF3070BDFEF75E
:10180000B3FC054604F11400FFF7EBFB04F14400C0
:1018100000F092F92846FEF7ABFC2046FFF73EFDAC
:10182000002070BD0148006870470000880000205B
:10183000F1B5FEF799FC05460C480468204600F017
:101840002DF804F144006A460021064600F0F2F843
:10185000304600F02BF92846FEF78AFCFFF7F2FC31
:10186000206B801C00D120630020F8BD8800002080
:1018700010B590F83610012280F835108A40022108
:10188000826380F83410FFF7AFFF0348006808B1A7
:10189000FFF7D8FC002010BD8800002070B504467A
:1018A00090F8340000F00F00012802D04FF0FF3014
:1018B00070BDFEF759FC054694F8340020F00F0087
:1018C000801C84F834002046FFF710FD04F144002A
:1018D00000F032F92846FEF74BFC002070BD10B531
:1018E00004466FF00100206304F11400FFF779FB58
:1018F0002046FFF7D3FCBDE81040FFF7A3BC000073
:1019000070B5FEF731FC06461348046894F83400BD
:1019100000F00F00012819D1D4E90501884215D043
:1019200004F114000546FFF75CFB94F835000B4901
:1019300001EBC00041680D60416869604560286046
:101940003046FEF715FCFFF77DFC02E03046FEF75F
:101950000FFC002070BD000088000020C0020020A5
:10196000002802DA4FF0FF3070474FF47A7190FB95
:10197000F1F290FBF1F301FB130000EB40034A434B
:10198000C3EBC0104B1E03EBC00090FBF1F0104402
:1019900070470000014800687047000024000020E4
:1019A000094810B50168491C0160FFF73BFF016C55
:1019B000491E016403D1C16B0164FFF7A1FFBDE8BB
:1019C000104000F003B80000240000202DE9F04191
:1019D000FFF7E0FF0646FEF7C7FB0746144D1EE083
:1019E00060696FF00041301A143C88421AD22046D8
:1019F000FEF78EFDD4E907108847FFF7CBFF0646B8
:101A0000607A810708D5C10706D020F00100607216
:101A1000204600F04BF802E020F0010060722C68D4
:101A2000AC42DDD13846BDE8F041FEF7A1BB000075
:101A30009C00002049B1012904D0022908D00329C3
:101A40000ED109E0406A10600AE01168416207E0C7
:101A5000417A21F0020102E0417A41F00201417233
:101A60000020704770B50546FEF77EFB0446284609
:101A7000FEF74EFD2046FEF77BFB2846FFF790FB66
:101A8000002070BD2DE9F8439046DDE908450A467F
:101A90001F4606460A21FFF7A5FB23463A46414664
:101AA00030460095FEF726FDBDE8F883F8B50446FC
:101AB000FEF75AFB05462046FEF72AFD607A20F025
:101AC000010060722846FEF753FBFFF763FF616A6F
:101AD0000844A062FEF748FB0546164A0020009223
:101AE00002EBC002694653686FF0004C5DF820209D
:101AF0000BE01268A2EBC0067769A66AB74202D073
:101B0000BE1B664503D341F820209A42F1D1094813
:101B1000001F0168491C016004F114010098FFF7DF
:101B200049FA607A40F0010060722846FEF720FB17
:101B30000020F8BD9C00002070B50446407AC00724
:101B40000ED0FEF711FB05462046FEF7E1FC2846C5
:101B5000FEF70EFB607A20F001006072002070BD7D
:101B60004FF0FF3070BD00002DE9FF4F894604465D
:101B700000EB090783B080464FF0FF3A4FF0200B8F
:101B8000A74202D25746C8F1FF3907E1252803D002
:101B9000BC4200D2207081E000260599491C0591C5
:101BA00008782D2811D02B2812D0202813D02328D4
:101BB00014D0302815D00A785546303A0A2A13D264
:101BC00005A800F02CF905461AE046F01006E4E7F7
:101BD00046F00406E1E746F00806DEE746F0200698
:101BE000DBE746F00106D8E72A2809D10698491C08
:101BF000059120C80690002D02DA6D4246F01006CD
:101C0000CDF800A0059801782E2918D1401C059028
:101C10000178A1F130020A2A04D205A800F0FFF8E9
:101C2000009008E02A2908D1401C0590069802C8B7
:101C3000069000910846002801DA002000900598DF
:101C400000210278682A01D06C2A02D1401C11467A
:101C5000059000780A236F287DD00CDC63281FD004
:101C600004DC25287BD058280DD17EE0642801D0E3
:101C7000692808D17DE070285ED073282CD07528A3
:101C800079D0782873D0BC4201D2252020700598E5
:101C9000641C0178D1B3BC4200D22170641C7AE08C
:101CA000F00608D458466D1E002D04DDBC4200D25B
:101CB0002070641CF7E70699BC4211F8040B0691EA
:101CC00000D22070584602E0BC4200D22070641C52
:101CD0006D1E002DF8DC5EE0069808C8069003B97A
:101CE0003EA31846FFF7F2FB0099002902DD884267
:101CF00000DD0846F1060AD459462A466D1E824286
:101D000005DDBC4200D22170641CF6E752E00021E0
:101D100006E0BC4201D21A782270491C5B1C641C8C
:101D20008142F6DB5A4629466D1E814233DDBC42B4
:101D300000D22270641CF6E7681C02D1082546F028
:101D4000010600980296CDE9005006981023394606
:101D500004C806901BE006E001E00CE007E0BC428E
:101D60009CD2252016E7082305E046F04006102304
:101D700001E046F002066C2901D068291DD00698C2
:101D800004C8069000983946CDE9005002962046D6
:101D9000FEF754FD04460598401C05900598007810
:101DA00000287FF4F3AEB9F1000F11D0BC420DD280
:101DB00020700DE0401E0590EDE7069830F8041BFA
:101DC00006908AB2B007DDD512B2DBE707F8010C46
:101DD00007B0A4EB0800BDE8F08F0000284E554C7A
:101DE0004C290000002070470020704700207047F9
:101DF0000020704710B5FEF7B7F9FEF727FFFFF791
:101E00000DFBFFF703FCFFF7D3FBFEF759FEFFF7CF
:101E100003FCFFF7B5FCFFF7E5FB002010BD10B594
:101E2000014600206FF02F0307E0541C0C6012786D
:101E300000EB800003EB400010440A681478303C4B
:101E40000A2CF2D310BD00002A480021026842F497
:101E5000803202604FF6FF730268491C12F4003FA3
:101E600001D19942F8D10168890300D4FEE7C16924
:101E700041F08051C16120490A6842F440420A6041
:101E80004268426042684260426842F48062426056
:101E9000426822F440324260426842F4403242607A
:101EA0004268164B1A4042604268154B1A43426022
:101EB000026842F08072026002689201FCD50A68F2
:101EC00042F480320A604A68D203FCD50A6842F4C0
:101ED00000320A604A689203FCD5416821F0030190
:101EE0004160416841F00201416041680907FCD549
:101EF000704700000010024000700040FFFFC3B7B1
:101F0000000034084FF0E02000210161416181614F
:101F1000704700000024224FDFF88880224EDFF84F
:101F20008C90DFF88CA0254601213046FEF7C9FBD6
:101F3000012807D0012D2CD10025F868FFF71CFAE5
:101F4000002426E005B90125641C322C21D3D8F8E1
:101F5000000080B117A0FEF737FABFF34F8F11488A
:101F6000001D01681A4A01F4E06111430160BFF3EA
:101F70004F8F00BFFDE717A0FEF726FAFFF7C2FF5D
:101F80004846FEF713FB3046FEF710FB5046FEF7BF
:101F9000CFFB0A20FFF7E4FCFFF763FBC4E7000078
:101FA0000000002008ED00E000080140000C0140A6
:101FB00000F0FF1F456E7465722049415020426F4A
:101FC0006F746C6F61646572202E2E2E0D0A0000F6
:101FD0000400FA05456E7465722073797374656D3B
:101FE0002049535020426F6F746C6F61646572209A
:101FF0002E2E2E0D0A000000164D174E01244FF410
:10200000FA773846FFF7ACFC0146E868FFF7CFF9EE
:10201000A86098B1012C4FF00401304602D0FEF7C1
:1020200093FAEEE7FEF752FB012801D0012200E00F
:10203000002204213046FEF789FAE2E7012C01D0A4
:10204000012400E0002405A0FEF7BEF909A0FEF778
:10205000BBF9D6E700000020000C014048656C6C1D
:102060006F2C57654163742053747564696F0D0A52
:102070000000000048656C6C6F2C52542D5468723F
:102080006561640D0A00000010B540F20260FEF7C1
:10209000EDFC40F20E60FEF7E9FC124C4FF40073C9
:1020A000032218212046FEF7B9FA23150322042142
:1020B0002046FEF7B3FA0C4C204600F047F84FF4E8
:1020C000E131204600F012F80421204600F07AF8B1
:1020D0000821204600F07CF82046BDE8104000F0C2
:1020E00061B80000000801400038014070B5134B92
:1020F00004460D460020E11A1A159C421BD005DC4F
:102100000F49611817D0914208D114E0914212D0C2
:10211000B1F56C4F02D10320FEF728FC00EB55000F
:10212000B0FBF5F14FF6F07201EA020001F00F0189
:102130000843A06070BD0220EEE70000004C0040A4
:1021400000BCFFBFC1F3080141607047134B10B5DD
:10215000C21A1915984213D007DC114A80180CD006
:1021600088421AD140F212440FE08A420BD0B2F5F5
:102170006C4F12D140F20E3407E040F2114404E0FB
:1021800040F2134401E040F214442046FEF78AFC7A
:102190002046BDE81040FEF777BC10BD004C004063
:1021A00000BCFFBFC16841F40051C160704700EB43
:1021B0009110006801F01F0201219140084000D0F9
:1021C00001207047C26822F004020A43C2607047CF
:1021D000C26822F008020A43C26070470000010092
:1021E00002000100030001000200010004000100E0
:1021F00002000100030001000200010005000100CF
:1022000002000100030001000200010004000100BF
:1022100002000100030001000200010006000100AD
:10222000020001000300010002000100040001009F
:10223000020001000300010002000100050001008E
:10224000020001000300010002000100040001007F
:10225000020001000300010002000100070001006C
:10226000020001000300010002000100040001005F
:10227000020001000300010002000100050001004E
:10228000020001000300010002000100040001003F
:10229000020001000300010002000100060001002D
:1022A000020001000300010002000100040001001F
:1022B000020001000300010002000100050001000E
:1022C00002000100030001000200010004000100FF
:1022D000020001000300010002000100303132332E
:1022E00034353637383961626364656600303132BF
:1022F00033343536373839414243444546000000CF
:10230000F11D0008E91D0008E51D0008ED1D00088D
:102310003023000800000020A80000001C04000872
:10232000D8230008A8000020581600002C0400083C
:10233000000000000000000000000000000000009D
:10234000000E270700000000000000000000000051
:10235000000000000000000000000000000000007D
:10236000000000000000000000000000000000006D
:10237000000000000100000048000020480000208C
:1023800078000000020000005800002058000020E3
:102390002000000005000000680000206800002008
:1023A000300000000A0000007800002078000020C3
:1023B0002C000000000000000000000000000000F1
:1023C000000000000000000000000000000000000D
:0823D000000000000000000005
:0400000508000131BD
:00000001FF
